:02000002E0001C
:1000000000000420BD020E00E5020E00E7020E0013
:10001000E9020E00EB020E00ED020E0000000000EF
:10002000000000000000000000000000EF020E00D1
:10003000F1020E0000000000F3020E00F5020E00B7
:1000400039560E00F7020E0049560E00F7020E0058
:10005000F7020E00F7020E00F7020E00F7020E0084
:10006000F7020E00F7020E00F7020E00F7020E0074
:10007000F7020E00F7020E00F7020E00F7020E0064
:10008000F57E0E00893E0E00F7020E00F7020E000C
:10009000F7020E00F7020E00F7020E00F7020E0044
:1000A000F7020E00F7020E00F7020E00F7020E0034
:1000B000F7020E00F7020E00000000000000000032
:1000C000F7020E00F7020E00F7020E00F7020E0014
:1000D00071780E00F7020E00F7020E0075690E002F
:1000E000F7020E00F7020E0061BF0E0000000000D4
:1000F00000000000F7020E0000000000F7020E00F2
:1001000000000000000000000000000000000000EF
:1001100000000000000000000000000000000000DF
:1001200000000000000000000000000000000000CF
:1001300000000000000000000000000000000000BF
:1001400000000000000000000000000000000000AF
:10015000000000000000000000000000000000009F
:10016000000000000000000000000000000000008F
:10017000000000000000000000000000000000007F
:10018000000000000000000000000000000000006F
:10019000000000000000000000000000000000005F
:1001A000000000000000000000000000000000004F
:1001B000000000000000000000000000000000003F
:1001C000000000000000000000000000000000002F
:1001D000000000000000000000000000000000001F
:1001E000000000000000000000000000000000000F
:1001F00000000000000000000000000000000000FF
:1002000010B5054C237833B9044B13B10448AFF350
:1002100000800123237010BD1801002000000000A1
:10022000D4FE0E0008B5034B1BB103490348AFF3DE
:10023000008008BD000000001C010020D4FE0E005C
:10024000A3F5803A704700BF174B002B08BF134B34
:100250009D46FFF7F5FF00218B460F461348144AD1
:10026000121A0BF0FDFE0E4B002B00D098470D4BE1
:10027000002B00D098470020002104000D000D48FD
:10028000002802D00C48AFF300800BF08FFE200056
:10029000290006F005FF0BF075FE00BF0000080006
:1002A00000000000000000000000042018010020F1
:1002B0008894002000000000000000000649074A62
:1002C000074B9B1A03DD043BC858D050FBDC00F001
:1002D00075FFFFF7B9FF0000D8FF0E0008000020EF
:1002E00018010020FEE7FEE7FEE7FEE7FEE7FEE777
:1002F000FEE7FEE7FEE7FEE70020704738B504465C
:100300002B482C4D04F09EF82B4B29481C6004F020
:10031000D7F82A4BED1AED082D0438B9284945F0D5
:10032000010000F085FC0324204638BD254B002148
:1003300040F603020330C3E9021258601970224BE1
:1003400022495960224945F00405C3E90212214AB5
:100350001A612149214A5A61284600F069FC04F0DB
:10036000DDFE8528044601D00028DDD1002004F000
:1003700055FF04460028D7D103F0E6FA184801F0EB
:10038000B9FD04460028CFD1164801F075FE044699
:100390000028C9D11449284600F04AFC01F01AFE91
:1003A00004460028C0D11149284600F041FCBBE7B3
:1003B000A8FF0E0078FF0E00BC010020F8FE0E0022
:1003C000A4C90E00601A0020481A0020FD030E0088
:1003D000F1030E00F0190020C5C90E00E0FE0E006A
:1003E0002CCB0E0008CB0E00DBC90E00E8C90E00B6
:1003F000011F014804F08EB8A8FF0E0037B50D4666
:10040000044618B90A49932003F029FF1DB9084989
:10041000942003F024FF01AB2A462146054804F04E
:10042000E9FD019A0349044802F090FE03B030BD93
:1004300002CA0E00D719002008CB0E0001F0CCBF75
:10044000083810B506283ED8DFE800F0081E2F3D1A
:100450003D3D0400BDE8104001F0D6BD1A4B1B48DD
:100460001B49C01AC008000440F0030000F0E0FB84
:1004700005F054FD08B901F0C5FD164B1B6813B318
:100480000120BDE8104018470F4B10481249C01A10
:10049000C008000440F0030000F0CAFB01F0E2FDD8
:1004A0000C4B1B687BB10220EBE7074B07480B495D
:1004B000C01AC008000440F0030000F0B9FBBDE81A
:1004C000104001F0B1BD10BDF8FE0E0078FF0E0027
:1004D00051CA0E00BC01002064CA0E0076CA0E008C
:1004E00008B503781BB9BDE8084001F075BF094A9B
:1004F000042101F0B3F858B1074B08480849C01A65
:10050000C0080004BDE8084040F0010000F090BBC6
:1005100008BD00BF3D040E00F8FE0E0078FF0E007F
:1005200080CA0E002DE9F04799B1022939D123493B
:100530002348012202F02AFE224B23490246234887
:100540001B1ADB081B04BDE8F04743F0020000F073
:1005500073BB1C481D4B194F1D4EDFF88490C01A09
:10056000C008000440F0040840F00104397818483D
:1005700004F074FD824668B9D6E9011248460AF0D3
:100580002DFA144803F09CFF054660B91249204635
:1005900000F04EFB0A480122394602F0F7FD002820
:1005A000E4D0BDE8F08702460C494046033500F030
:1005B00043FBC6E9015A86F800A0EBE7081A0020C1
:1005C00008CB0E0078FF0E009ECA0E00F8FE0E004B
:1005D000601A0020A8FF0E00C4CA0E00DFCA0E0079
:1005E000481A00207047000007B5044B0093044AE6
:1005F000402300F032F803B05DF804FB05060E005E
:10060000711A00202DE9F84388461446B2B10F4B09
:100610000F4E0325002743F00109224608EB07018E
:10062000002006F00BFE0744241A48B933782BB19A
:100630004FF47A40C847013D02D13570BDE8F883D8
:1006400001233370002CE8D1F8E700BF40CB0E0047
:10065000701A0020704706F025BEF0B595B01D4613
:10066000164608460C4604F000FC1A9B0D93CDE993
:10067000086500252B46082205A920460A958DF815
:100680002C500C9504F018FC079B0293069B0393D7
:100690009DF814308DF8115003F00302012A1DD18A
:1006A000BDF81420059DC3F3C203C2F383168DF871
:1006B0001030B20008230EA9204604F0FDFBC5F35C
:1006C000952508AB0093324602AB0EA9284600F0F0
:1006D000EDFB204604F0CDFB15B0F0BD022AF8D1A9
:1006E000BDF81650C3F3C203C5F389158DF8103059
:1006F0000827082D2E4628BF08263B4632460EA95D
:10070000204604F0D9FBAD1B08AB02AA31460EA867
:10071000374400F02FFC002DEBD1DAE708B5FFF7E6
:100720009AFF0748042100F021FB002803DA05495D
:10073000412003F094FD044B01225A7108BD00BF13
:10074000E8FE0E0054CB0E000C000020037813F0DE
:10075000040216D003F00303012B03D0022B09D0AF
:10076000012070470A6800880232C0F383100244F7
:100770000A60F5E70B684288023303EB92130B60C3
:10078000EEE71046704700002DE9F04F044685B0B3
:10079000861C00200F46154603F066F9434A51684F
:1007A00039609368424F03F580535B1A9246A7F174
:1007B0000409A7F10808B3421AD30020002D71D014
:1007C00004F00F039B0143F0050363F30F00DAF815
:1007D0000430C3F30B0203321E444AF82200002007
:1007E000CAF8046003F050F9012005B0BDE8F08FAD
:1007F0000121384603F002FE484603F01AFE404647
:1008000003F017FEDAF808000090C0F30B00033085
:100810000AEB80006946FFF799FF009B8346C8B941
:10082000C3F30B020AEB8202D16801919A1C0133D7
:10083000C3F30B030AEB83030092D86801F00303B0
:10084000012B27D0022B08D01A494FF4C27003F0B5
:1008500006FD0CE0C3F30B00D9E7BDF80630C3F387
:10086000891303334FEA104B02EB93030093404686
:1008700003F0E2FD10B1009BCAF808305946384633
:1008800003F0BCFDDAF80830DAF8042003F58053F1
:100890009B1A90E7BDF80430C3F383134FEA104B63
:1008A0001344E3E7A40544F0060090E7841B00200E
:1008B000A05B0020ABCB0E00064B074810B5002212
:1008C0001A7004F08BFA044610B9044804F008FBCF
:1008D000204610BD841B0020BCFF0E0000CC0E0083
:1008E00030B50A4C71B10A4A0A49121BD2080023DA
:1008F0009A4201D1002030BD31F82350854202D008
:100900000133F5E7034654F83300F4E7F8FE0E0030
:10091000A8FF0E0018010020094B013903EBC000AD
:10092000032909D8DFE801F00A0204060420704711
:100930000079704740797047002070470220704767
:10094000F8FE0E0070470000034BD3E90130C31AD4
:1009500058425841704700BF841B00202DE9FF41D9
:10096000FFF7F2FF0546002840F0F3807A4C44F28E
:100970001803E050BFF34F8FA3680093C3F30B033A
:100980000333764E04EB83006946FFF7DFFE009BDE
:1009900010B13268002A5BD0C3F30B02991C0133FB
:1009A00004EB8202C3F30B0304EB8303D268DB681E
:1009B000029302F00303022B0192009159D1BDF87A
:1009C00006306748C3F38917502F3E4628BF50268C
:1009D00066F38F1306F10801ADF8063004F016FA3D
:1009E0000546002800F09F8004F03FFA002301A98B
:1009F0000822284604F04CFA0099CB43C3F30B03BA
:100A00000133C1F30B010331B6EB830F4FEA8308C7
:100A100004EB81012AD908234246A6EB08062846A2
:100A200004F036FAF6B24F4908F108033246284678
:100A300004F02EFA009B033703EB9707009744F26C
:100A40001803E358002B49D144F21003E65858E04C
:100A500062689A4204D8A260284604B0BDE8F081DA
:100A6000C3F30B03033304EB83008DE70823324603
:100A7000DDE7012B57D1BDF804303948C3F38311AA
:100A8000062928BF062161F3891302318900ADF8D8
:100A9000043004F0BBF90546002844D004F0E5F921
:100AA0000023082201A9284604F0F2F90026BDF827
:100AB0000420C2F38312B300964203F10803BED2AE
:100AC00000994A1CC1F30B010331009204EB810130
:100AD0000422284604F0DCF90136E8E7284604F051
:100AE000C8F9FFF731FF80F00100C5B2B4E7F36841
:100AF0005B7923B1336829461B6830469847F36811
:100B00001E68002EF3D1284604F0B3F9304602F0F7
:100B1000ABFF44F21803E3580BB9009BA36000201D
:100B200002F0B2FFDDE744F21003E45854B90E4B73
:100B30000E480F49C01AC008000440F0020000F03F
:100B400077F8CEE7236820469B689847E3681C68DF
:100B5000ECE7002580E700BF841B00209C5B0020A1
:100B6000BCFF0E00901B0020F8FE0E0020FF0E00C0
:100B7000EACB0E002DE9F34704460F46914601A942
:100B8000012218461E46FFF7FFFDDFF8A08078B36C
:100B9000019D0023A81CB34203EB000134D11F4880
:100BA000002103F0F0FB80F3100A1D4B1D4A4FEAB1
:100BB00014499B1AB9EBD30F04D31B4940F2A91077
:100BC00003F04DFB6B1CC3F30B03E40008EB830342
:100BD00004F0380449EA0A40C5F30B0544F0010467
:100BE000D860033544EA861343EA872348F8253062
:100BF00098F800301BB1FFF7B1FE0028FBD1FFF7DA
:100C0000A1FE02B0BDE8F087C1F30B0108EB810142
:100C100059F82320CA600133BDE700BFA05B002064
:100C2000A8FF0E00F8FE0E00ABCB0E00841B0020C8
:100C300000231A46FFF79EBF07B50123019201AAC0
:100C4000FFF798FF03B05DF804FB07B5CDE900237B
:100C500002236A46FFF78EFF03B05DF804FB1FB561
:100C6000CDE90123069B039301AA0323FFF782FF2B
:100C700005B05DF804FB1FB5CDE90023069B029388
:100C8000079B03936A460423FFF774FF05B05DF8E2
:100C900004FB7FB5CDE90123089B0393099B0493D3
:100CA0000A9B059301AA0523FFF764FF07B05DF8CF
:100CB00004FB00002DE9F7430446D01C8846164685
:100CC00001A900228008FFF75FFD264D98B3019F20
:100CD000B81C0190C0F30B00C0F58053B6EB830F36
:100CE00000F103004FEA830905EB80002AD8324661
:100CF00041460BF08DF91C48002103F044FB80F3C2
:100D000010007B1CC3F30B03220C05EB8303C7F31A
:100D10000B0742EA00400337D860E40055F827305B
:100D200004F0380444F0020444EA865203F47C13CD
:100D30001A4345F827202B787BB9FFF703FE03B051
:100D4000BDE8F0834A4641460BF062F9A6EB090282
:100D500008EB090105F10C00CBE7FFF7FFFD0028C8
:100D6000FBD1EAE7841B0020A05B002030B5134ACA
:100D700044F21001034654580020214649B9DC686A
:100D8000207144F2100415594DB91351DB681960F4
:100D900030BDC9680D79854209D00968EEE7ED6874
:100DA000D9682D680D601259D2681360F0E70130E0
:100DB0000A28E2D14FF0FF30EAE700BF841B002091
:100DC00038B5094A44F21003D458012313701D4664
:100DD00004B938BDE3685D71236820465B689847B5
:100DE000E3681C68F4E700BF841B002007B50346D6
:100DF0000846197A052911D05B7A2BB1094A0A49AC
:100E0000019003F0BDFB01980849019003F0B8FB85
:100E1000019803B05DF804EB03F0A0BB002AF8D002
:100E2000F2E700BF0CCC0E0077F80E002ECC0E00BF
:100E300030B5C38885B004460D4633B1144A0092DC
:100E40001449154A284603F09BFB217A05291DD039
:100E5000637A4BB1A088FFF75FFD104B104953F840
:100E60002020284603F08CFB227A0E4BA08853F8F2
:100E7000222003920021FFF733FD039A0A4903461B
:100E8000284605B0BDE8304003F07ABB05B030BD60
:100E90000CCC0E0019CC0E0011CC0E009CCC0E0018
:100EA00077F80E00C0CC0E0031CC0E002DE9F043D7
:100EB00085B01F460C9D002395F80C902B730646B9
:100EC0000C46904629463846FFF7B2FFB8F1060FA8
:100ED00009D8DFE808F00412181F28334000314613
:100EE000284603F04DFB002229463846FFF77EFFD7
:100EF00085F80C9005B0BDE8F0832268314628469D
:100F000003F03EFBEFE7D4E900233146284603F027
:100F100037FBE8E7A36800933146D4E9002328466D
:100F200003F02EFBDFE7E3680193A36800933146EB
:100F3000D4E90023284603F023FBD4E72369029376
:100F4000E3680193A36800933146D4E9002328465F
:100F500003F016FBC7E76369039323690293E36811
:100F60000193A36800933146D4E90023284603F097
:100F700007FBB8E708292DE9F84F80460E461746CB
:100F80001C463BD8002593F80C901D73194610465B
:100F9000FFF74EFFDFF88CA0DFF88CB0AE422FD900
:100FA00018F805205946204603F0EAFA0135082DC5
:100FB000F4D11949194DDFF874A0204603F0E0FA86
:100FC0004FF0000B5E4522D918F80B207E2A1CD862
:100FD000134BD15C11F0970F08BF2E2251462046CB
:100FE00003F0CEFA0BF1010BBBF1080FEAD101229D
:100FF00021463846FFF7FAFE84F80C90BDE8F88FDA
:101000005146204603F0BCFAD0E72E22E6E72946F7
:10101000204603F0B5FAE5E745CC0E0043CC0E00C0
:1010200099FD0E0041CC0E003BCC0E0047CC0E00CB
:1010300010B502685309044618D0012B4FF6FF7310
:1010400018BF002302F01F02D340DB0704D4094974
:101050004FF4F67003F003F923681F2B83BF03F0EE
:101060001F03054823604FF0A04010BD4FF0FF3331
:10107000E8E700BFD4CC0E0000030050032813B5EE
:10108000044603D90849472003F0E9F8074B01A8B3
:101090001B5D0193FFF7CCFF019A01239340C0F839
:1010A000083502B010BD00BFFFCC0E002DCD0E00E4
:1010B00008B50020FFF7E2FF0120FFF7DFFF022065
:1010C000FFF7DCFFBDE808400320FFF7D7BF0000B3
:1010D000032813B5044603D90B495F2003F0BFF87A
:1010E0000A4B01A81B5D0193FFF7A2FF0199D0F8FD
:1010F000043501228A4022EA03011340C0F8081592
:10110000C0F80C3502B010BDFFCC0E002DCD0E0086
:10111000F7B5C207044612D5134E0025032716F86B
:10112000013B019301A8FFF783FF019B013503F504
:10113000E073042D40F82370F1D1FFF7B9FFA30746
:1011400010D50A4D00240C2615F8013B019301A887
:10115000FFF76EFF019B013403F5E073042C40F8A8
:101160002360F1D103B0F0BD2DCD0E0029CD0E00CE
:10117000034B1868A0F1080358425841704700BF5C
:1011800030010010064B1B68082B06D1054B1B686D
:10119000052B02D8044AD05C70470020704700BF7E
:1011A000300100103401001037CD0E00024AD2F891
:1011B0000034002BFBD0704700E0014010B5FFF772
:1011C000D7FF40B14FF080430022C3F80C21C3F891
:1011D0001021C3F83825FFF7CBFF002846D04FF089
:1011E0008052614BD2F80414C3F82015D2F80814C9
:1011F000C3F82415D2F80C14C3F82815D2F810142B
:10120000C3F82C15D2F81414C3F83015D2F81814FA
:10121000C3F83415D2F81C14C3F84015D2F82014C2
:10122000C3F84415D2F82414C3F84815D2F828148A
:10123000C3F84C15D2F82C14C3F85015D2F830145A
:10124000C3F85415D2F83414C3F86015D2F8381422
:10125000C3F86415D2F83C14C3F86815D2F84014EA
:10126000C3F86C15D2F84424C3F87025FFF78AFF41
:1012700010B13E4B3E4A1A60FFF784FF18B13D4B58
:10128000FB22C3F81825FFF77DFF48B13A493B4BD5
:101290000A681B6822F00F0203F00F0313430B6070
:1012A000FFF770FF18B1364B4FF400721A60FFF76A
:1012B0005FFF48B14FF08043D3F80024D20744BF0A
:1012C0006FF00102C3F800242E4AD2F8883043F4AC
:1012D0007003C2F88830BFF34F8FBFF36F8F2A4B74
:1012E0001B68082B0ED1294B1B68052B02D8284AF6
:1012F000D35C3BB14FF01023D3F808224FF080436A
:10130000C3F858254FF01023D3F80022002A03DB3E
:10131000D3F80432002B22DA1E490123C1F8043528
:10132000FFF744FF4FF010201224C0F80042FFF7EF
:101330003DFFC0F80442FFF739FF0023C1F8043530
:10134000FFF734FFBFF34F8F0E49134BCA6802F407
:10135000E0621343CB60BFF34F8F00BFFDE70F4B3D
:101360000F4A1A6010BD00BF00C000408C560040FC
:101370004881030000F00040E40E004058020010D5
:101380004096024000ED00E03001001034010010F2
:1013900031CD0E0000E001400400FA0514000020E9
:1013A0000090D00338B52022044608300D460AF0DC
:1013B0002FFE2022A91804F128000AF029FE00209F
:1013C00038BD00002DE9F3411B4D98461B4B0360CF
:1013D00004460E4628460121174602F0D4FFBFF30B
:1013E0005F8F30BB00F0F6F83B46089ACDF80080DE
:1013F00006F10801204609F057FC044600F0F8F811
:101400002B68012B03D00E49932002F028FFBFF375
:101410005F8F00232B6044B10A4948F2165248F20C
:1014200042538C4214BF14461C46204602B0BDE80D
:10143000F08148F20454F8E7948F0020DD55AABBF0
:101440004CCD0E008408F0000E4B984214D00AD800
:10145000B8B10D4948F2165248F20153884214BF00
:10146000104618467047094B984208D0084948F280
:10147000165248F20353F1E748F20350704748F21E
:10148000025070470102F0000002F0000202F0007A
:101490000F02F00008B5083009F070FCBDE8084004
:1014A000FFF7D2BF10B5064C2268012A03D00549C8
:1014B000932002F0D4FEBFF35F8F0023236010BDA2
:1014C000948F00204CCD0E0013681F2B73B505467A
:1014D0000E4614461AD901210F4802F054FFBFF3FB
:1014E0005F8FB0B900F076F8314605F1080009F0D9
:1014F000B1FC019000F07CF8FFF7D4FF0198FFF7F2
:10150000A3FF08B92023236002B070BD48F2145035
:10151000FAE748F20450F7E7948F00202DE9F041F4
:1015200005460E4618480121144602F02CFFBFF371
:101530005F8F20BB00F04EF8DFF850800835B4F51F
:10154000805F274628BF4FF4805731463A464046D1
:101550000AF05EFD3A464146284609F029FCE41BA4
:101560003E4450B9002CEAD100F042F8FFF79AFF50
:101570002046BDE8F041FFF767BF0446F4E748F2B4
:101580000450BDE8F08100BF948F00203C5C002037
:10159000024B0020C3F80005704700BF00A00250B6
:1015A00038B50A4B00251D60BFF35F8F084C01233F
:1015B000C4F8003509F07EFCC4F8005520B10528B8
:1015C00048F2035018BF032038BD00BF948F00209D
:1015D00000A00250044B0122C3F80025034B4FF436
:1015E00080625A60704700BF00A0025000E100E036
:1015F000064B0022C3F80025054B4FF48062C3F868
:101600008420BFF34F8FBFF36F8F704700A002504D
:1016100000E100E04B1C30B5DB00044612F0030093
:101620009BB20DD1074D2A601A44074B1A60074B35
:101630001870074B1870074B1C80074B198030BD82
:101640000720FCE7446C0020406C00203C6C00202C
:101650004C6C0020486C00204A6C00202DE9F047BB
:10166000274F3B888B4206460D46904644D30020C8
:1016700002F0FAF9234B24481978244B00881C788F
:10168000E2B2844238BF0132C9B234BFD2B20022C2
:1016900091422BD01C781A78D1B2904286BF01318A
:1016A000C9B200211970002002F0EEF94FF6FF7365
:1016B0009C4223D0DFF85C90D9F800204FEAC40A9E
:1016C00042F8348002EBC4039EB195B1104B3888C8
:1016D0001B682A4604FB003031460AF099FCD9F811
:1016E0000030534400209D80BDE8F0874FF6FF7422
:1016F000D9E700209880F7E70920F5E70420F3E711
:10170000486C00204C6C00204A6C00203C6C00208F
:10171000406C0020446C0020F8B5114C114D264659
:1017200022782B789A4200D1F8BD0F480F4A2378CF
:10173000126807880E4802EBC301006852F8332094
:10174000898803FB070090470A4922780988D3B2A9
:10175000914286BF0133DBB200233370E0E700BF64
:101760004C6C00203C6C0020486C0020446C002035
:10177000406C00204A6C0020D0E90223D1E902012C
:10178000994208BF90422CBF012000207047000002
:1017900008B50B4802F061FB0A4B0B49D3E9002363
:1017A0001218D1E9000143F100038B4208BF8242C5
:1017B00003D212F1807243F100031046194608BDAE
:1017C00018000020586C0020D06C002037B505466A
:1017D0000C460A4801A902F061FD60B10570446041
:1017E00001A9064802F084FD18B1054802F03AFB51
:1017F000002003B030BD0420FBE700BFBC6C00201C
:101800001800002070B5436904461BB92349A52080
:1018100002F025FD224B1E7816B90026304670BD19
:10182000FFF7B6FFD4E90223994208BF90422ED3B6
:10183000002002F019F923692BB94FF0FF324FF065
:10184000FF33C4E90223002002F01EF9D4E9053079
:101850009847002002F008F9256965B1D4E9022310
:10186000591C08BFB2F1FF3F0FD0521943F10003DA
:10187000C4E902233546002002F006F9002DCCD041
:101880000848214603F03AFBC8E70025F3E7013397
:1018900008BFB2F1FF3FC0D0F2E700BF98CD0E0005
:1018A000606C0020E0CD0E0013B5114B1149186893
:1018B000019008231048582202F0DDFC044698B934
:1018C0000E4A0F4801A902F063F9044660B90C48BA
:1018D000012102F0A9FA01230A4A0948194602F037
:1018E000F5F9094B01221A70204602B010BD00BF65
:1018F000DACD0E00646C0020BC6C00200D1A0E00C6
:1019000018000020FFFF7F00606C002070B50C46BF
:101910001546064620B90D4940F25A2002F09FFCB8
:1019200035B940F25B20094902F099FC072070BDEF
:10193000621E336854424FF0FF304FF0FF31544184
:10194000C3E902015D611C610020F0E798CD0E0043
:10195000F8B50D461746044620B9144940F26B20ED
:1019600002F07DFC002002F07FF8D4E9022301336D
:1019700008BFB2F1FF3F15D1FFF70AFF401941F14F
:101980000001C4E902010126002002F07DF85EB1E9
:101990002369A76103B1256121460020BDE8F84015
:1019A000FFF714BF0026EFE73046F8BD98CD0E00D4
:1019B00038B5044620B9114940F2932002F04FFC9B
:1019C000002002F051F8D4E9022301330FBFB2F135
:1019D000FF3F4FF0FF324FF0FF33C4E9022314BF43
:1019E00001250025002002F04FF82DB121460120ED
:1019F000BDE83840FFF7EABE284638BD98CD0E0056
:101A0000014802F02ABA00BF180000202DE9F74F64
:101A1000804602F00DFA40B16F4AD2E9003113F16D
:101A2000807341F10001C2E900310021404602F01B
:101A300009FAD0B1694F3B68BBB1404602F00DFADC
:101A400000210646404602F002FA301A20F07F409C
:101A5000B0F5960F04D3624940F2411002F0FFFB4B
:101A60003868FFF7CFFE00233B600121404602F0BB
:101A7000E9F920B1FFF78CFE5A4BC3E900015A483F
:101A8000DFF8589101A902F043FC4FF0FF364FF008
:101A9000FF3798B9DFF854A1504F504603F05AFA77
:101AA000002800F08C80D0E90223591C08BFB2F155
:101AB000FF3F34D1504603F03DFAEEE70378012BA7
:101AC00020D0022B09D1DFF824A1504603F032FACE
:101AD00000287CD0C0E90267F7E753B94168D1E933
:101AE0000223013308BFB2F1FF3F02D03F4803F0A9
:101AF00005FA01A93C4802F036FC01A93A4802F077
:101B000007FCC6E74168D9F80030994203D10023A9
:101B1000C9F80030EDE7354803F028FAE9E73968FD
:101B200091B13968D1E902018B4208BF82422FD2BC
:101B30003B68D3E90223013308BFB2F1FF3F03D072
:101B40003968504603F0DAF9504603F0F3F9D0E96A
:101B5000026B8146FFF71CFE341A6BEB0105012C6A
:101B600075F1000319DBB4F5350F14D3FFF748FF07
:101B70001F4A02441F484FF49603002102F0D6F892
:101B8000A8B93B6813B9404602F084F8C7F8009042
:101B900003B0BDE8F08F3246ECE71648002102F0B2
:101BA0004BF94846FFF72EFE00233B6075E70D28F2
:101BB000F7D00B494FF4867002F051FBF4E7074B66
:101BC0001B68002BE4D1404602F072F8E0E70A4BB4
:101BD00001221A708DE700BF586C0020D86C0020DD
:101BE00098CD0E00D06C0020BC6C0020E0CD0E0023
:101BF000FFFFB40018000020606C0020024B5B68FF
:101C000003B11847704700BFDC6C0020024B01464F
:101C1000D3E90002104700BF306D00200378052B88
:101C20000CD1084AD2F88434D2F8802412F0FF0F85
:101C300004D1054ADBB2052B08BF1046034B1B68D5
:101C4000184700BF00700240B4CE0E00DC6C0020CC
:101C5000FFF7E4BF38B50D46044620B9064940F207
:101C6000431002F0FCFA6378AB4283BFA0784019BE
:101C70000019002038BD00BFECCD0E0038B50D4670
:101C8000044620B906494FF4887002F0E8FA237A36
:101C9000AB4283BF093405EB45056019002038BD10
:101CA000ECCD0E0070B50D46044620B90D4940F24A
:101CB0000F1002F0D4FA636823B90A494FF4887010
:101CC00002F0CDFA63681B6823B9064940F211108F
:101CD00002F0C5FA6368294620461B68BDE87040DB
:101CE000184700BF2BCE0E0008B520B1044940F2C2
:101CF0007B2002F0B4FABDE808400248FFF78EBF2F
:101D00002BCE0E00B8CE0E0010B5044620B9044903
:101D100040F2432002F0A3FA2368186810BD00BF08
:101D20005FCE0E0000F00F0310F0800F10B51C46C0
:101D30000AD0082B04D909494FF4CC7002F08FFA6D
:101D4000074800EBC40010BD082B04D903494FF429
:101D5000CF7002F084FA0348F3E700BF2BCE0E00E9
:101D6000E86C0020306D002070B50D460646FFF788
:101D7000D9FF044605604DB9730604D105494FF4F7
:101D8000E17002F06CFA0023636070BD6B681B6841
:101D9000FAE700BF2BCE0E00012805D0022805D09F
:101DA00030B90648FFF73ABF0548FBE70548F9E7B1
:101DB000054940F2622002F052BA00BFA8CE0E00E0
:101DC000ACCE0E00B0CE0E002BCE0E0038B5831E6A
:101DD000DBB2062B98BF1A4A1A4D98BFD25C2B78FB
:101DE000A3F10203DBB288BF0022062B9ABF14497D
:101DF000CB5C00239342044603D0B2B1124803F0F7
:101E0000ADF9022C14D0A4F10800424242412B78D3
:101E1000022B0FD0A3F108014B424B41934202D059
:101E200052B104F0CDF82C7038BD03F0D3F9E8E7D7
:101E30000122ECE70123F1E704F0B8F8F3E700BF73
:101E40009CCE0E00816D0020200000202DE9F04F77
:101E500087B000260546884691461F4602966B6865
:101E600000225C682946012302A8A047044638B92D
:101E70008DF8060004908246564503D8052028E0D8
:101E80000136ECE76B680DF10602D3F804B0294681
:101E9000012304A8D8476B680DF10702D3F804B0FA
:101EA0002946012304A8D8479DF8073043459DF8EB
:101EB000063013D14C450FD1109A13603B7087F850
:101EC00001806A68023B54682946BA1C04A8A047EE
:101ED000002007B0BDE8F08F0134E4B26A68023B2D
:101EE000D2F804B02946002204A8D8479DF806304D
:101EF0009A44C1E7F7B5054603F00AF920B92B4922
:101F000040F2313002F0ABF9294804F099F8044668
:101F100090BB284B1870284B1860284B014618605E
:101F2000482227480AF09CF82648482221460AF011
:101F300097F8254B1DBB254A1D72C3E900250020DB
:101F400003F06CF918B1852801D005F01DF8204F79
:101F5000002529463846FFF791FE0135EDB20446CB
:101F600010BB0B231A488DF8043001A9FFF79AFE25
:101F7000044608B103F0E6FE204603B0F0BD95E844
:101F8000070083E807000028D9D1104A1A60D6E775
:101F900000783946FFF7E8FEF1B22046FFF75AFE17
:101FA00001360028F4D1D4E70026F5E72BCE0E0049
:101FB000511C0E00816D0020786D00207C6D00208A
:101FC000E86C0020306D0020DC6C0020D9230E006E
:101FD0006CCF0E0010B503F099FF10B90823184616
:101FE00010BD03F09BFF04460028F7D1044803F01E
:101FF00030F903460028F2D004F0C6FF2346EEE78E
:10200000A4CE0E0003F0B4BE08B503F091FF20B1DA
:10201000044940F2D13002F022F9BDE8084004F052
:1020200043BD00BF2BCE0E0008B503F077FF20B9EB
:102030000A494FF4767002F012F94FF08043D3F85A
:102040003824920704D5BDE808400548FFF7E6BDEF
:10205000D3F83824D107F2D408BD00BF2BCE0E0030
:10206000B9CE0E0007B5822301A88DF80430FFF722
:10207000D5FD03B05DF804FBF7B5044620B9384937
:1020800040F26A5002F0EBF8636823B9344940F239
:102090006B5002F0E4F863681B6823B9304940F2E2
:1020A0006C5002F0DCF823681B6823B12C4940F225
:1020B0006D5002F0D4F803F031FF30B1284940F2FE
:1020C000715002F0CCF8002613E003F01FFF002847
:1020D000F9D1F3E70078FFF725FE0368013713B164
:1020E000112023E00027F9B22846FFF7B3FD0028AE
:1020F000F0D131462046FFF7C1FD0136F6B2054664
:102100000028EFD129462046FFF7B8FD0135EDB292
:102110000646C8B9134D124E2B68BBB92C600B2371
:1021200001A920468DF80430FFF7BCFD03B0F0BDD7
:1021300000782146FFF718FEF9B23046FFF78AFD16
:1021400001370028F4D1DDE70027F5E7A34204D1E9
:10215000314640F2975002F082F82B681D68DBE7A9
:102160002BCE0E00786D0020024B1878003818BF77
:1021700001207047806D0020030710B5044604D489
:1021800004F056FA204604F061FD2046BDE81040F8
:1021900004F008BD04F0D0BC014B1868704700BFC4
:1021A000786D00202DE9F8430F4B1C6806460D465C
:1021B000BCB194F808904FF000085FFA88F7B94571
:1021C00004D82046FFF7A0FD0446F1E73946204633
:1021D000FFF754FD0378B34208F10108EDD105B1D2
:1021E0002F702046BDE8F883786D00201146FFF778
:1021F00059BD07B500F00F03082B019109D8FFF76F
:1022000091FD006828B1019903B05DF804EBFFF778
:1022100049BD102003B05DF804FB000038B5074B42
:102220001C68054604B938BD29462046FFF73AFD2B
:102230002046FFF769FD0446F4E700BF786D0020F3
:1022400038B5084B1C6805460CB9062038BD294630
:102250002046FFF727FD0628F8D12046FFF754FD5A
:102260000446F1E7786D002013B50446019103F0B0
:1022700034FF50B1064B1B78022B06D10199204642
:1022800002B0BDE8104003F035BF082002B010BD19
:10229000816D002013B50446019103F01EFF50B17B
:1022A000064B1B78022B06D10199204602B0BDE8EF
:1022B000104003F0A7BF082002B010BD816D0020C0
:1022C00070B543689B6805460E4614469BB92B7A49
:1022D000B34204D20F4940F2F92001F0C0FFB4B973
:1022E00031462846FFF7CAFC46780546E1B2B142BE
:1022F00005D3002002E098470628E8D070BD2846A4
:10230000FFF7A8FC0078FFF737FF0134EEE707205E
:10231000F4E700BF2BCE0E0070B54368DB680446BF
:102320000D4603B19847237AAB4204D20B494FF4D0
:10233000467001F094FF29462046FFF79FFC46783F
:1023400004460025E9B28E4200D870BD2046FFF752
:1023500081FC007804F0F0FB0135F3E72BCE0E0092
:1023600043681B6903B1184718467047F8B50D4B11
:102370000D4E1C6804B9F8BD277A0025E9B28F42DA
:1023800004D82046FFF7C0FC0446F3E700222046AD
:10239000FFF796FF20B1314640F26A7001F05FFF0F
:1023A0000135EBE7786D00202BCE0E0070B5094BA0
:1023B0001C6804B970BD267A0025E9B28E42204619
:1023C00003D8FFF7A1FC0446F3E7FFF7A5FF0135AB
:1023D000F3E700BF786D002038B5974B1B680446C3
:1023E00023B9964940F2254001F039FF01F05CFB2A
:1023F000052804D8914940F22C4001F030FF2378A1
:102400000F2B13D9A3F1800283F08003052B06D98B
:10241000BDE83840894940F2265001F020BF052A26
:10242000F6D8DFE802F06429467079D80F2BEFD890
:1024300001A252F823F000BF37250E0065250E00DB
:10244000C5250E0089250E00A7250E00D7250E00F4
:10245000E9250E0011240E002B260E002F260E005B
:1024600033260E0011240E0011240E0011240E003C
:1024700011240E00E1250E007148FFF7C7FB7048DC
:10248000FFF7CCFE0D20FFF7B9FBFFF78FFF00F041
:1024900092FF6C4B1B6853B96B4B187A00F001002C
:1024A00003F002FD0120BDE83840FFF78FBC01209A
:1024B000F4E7FFF77BFF04F0C9FA0020FFF786FC82
:1024C0006248FFF7ABFE6148FFF7A0FB0E20FFF765
:1024D00095FB5F4B1B78023BDBB2062B3AD85D4A7B
:1024E000D35C002B36D0BDE8384002F073BE584BA9
:1024F0001B78062B05D003F0FD03052B2AD1022003
:10250000D1E70820CFE7524B1B78032B22D104F0F0
:10251000EDFAF8B10420C6E74D4B1B78032B05D12B
:1025200004F0E4FA10B10420FFF750FC03F00EFDB4
:1025300080B10620B7E7464B1B78032B01D0082B50
:1025400002D14548FFF748FF0020FFF757FB3D4BFE
:102550001D6805B938BD28462146FFF7A3FB2B6847
:102560005D68F6E7FFF722FF00F01CFF0220FFF78F
:102570002DFC0120FFF742FB2046FFF747FB2046DA
:10258000BDE83840FFF74ABE314B1B78082B06D117
:102590000220FFF71BFC03F01DFD0320EAE70520E6
:1025A000FFF714FCF9E70320FFF728FB2B48FFF7A0
:1025B0002DFB2A48FFF732FE254B1B78062B9ED1B8
:1025C000072070E70320FFF701FC0220FFF716FB4E
:1025D0002046FFF723FE2046BDE83840FFF716BB34
:1025E0000F20FFF70BFBCAE7A078FFF79BFB036800
:1025F000054623B9114940F2025001F030FE6B68E4
:1026000023B90E4940F2035001F029FE6B68286897
:102610002146984700289DD0A07802079AD003074A
:1026200098D4BDE8384003F0C5BF0820D9E7092099
:10263000D7E70A20D5E700BF786D00202BCE0E002B
:10264000BACE0E007C6D0020DC6C0020BBCE0E00EC
:10265000816D00209CCE0E00BCCE0E00BDCE0E00C3
:1026600038B50D46044620B906494FF4887001F08C
:10267000F6FD237AAB4283BF093405EB45056019AB
:10268000002038BDECCD0E0038B50D46044620B90B
:10269000064940F2431001F0E2FD6378AB4283BF8C
:1026A000A07840190019002038BD00BFECCD0E0005
:1026B00008B50121FFF7D4FF0121FFF7E5FF0078FE
:1026C00008BD00002DE9F84317468E4A99460B7A5B
:1026D00013700E460546904620B98B494FF444705E
:1026E00001F0BDFD2B68002B00F08780A3F21333AF
:1026F0007C2B00F23C837C2B00F23983DFE813F063
:1027000088009300A100AD00B900C500D100DD0034
:10271000370337033703370337033703F50008015F
:1027200037033703370337031B012701350137030D
:102730003703370348015401820137033703370356
:1027400037036A0176018201370337033703370302
:102750003703370394013703370337033703A801DF
:10276000B401C001CC01D90137033703E501F10100
:10277000FD01090215023703370321022D02390238
:102780004502370337035802640270027C02880254
:102790003703370337033703370337033703370369
:1027A0003703370337033703370337033703370359
:1027B000370337033703B002BC023703370337034D
:1027C000CE023703370337033703EB0237033703F0
:1027D00037033703EB023703370337033703370376
:1027E0003703FD0209033703370337033703270392
:1027F0003703370337033703270308232B71B9F156
:10280000000F05D140F213332B600120BDE8F8839F
:102810000FB12B793B700B23B9F1010F2B710ED83F
:102820004FF44573F0E700240FB12B793B55013489
:10283000337D2B714C4505D340F21533E4E7012479
:10284000F2E700240FB12B793B55013402234C45AC
:102850002B7103D340F21633D6E700240FB12B7946
:102860003B55013402234C452B7103D340F21733FF
:10287000CAE700240FB12B793B55013402234C45A4
:102880002B7103D34FF44673BEE700240FB12B79AD
:102890003B550134737E2B714C4503D340F2193301
:1028A000B2E700240FB12B793B55013400234C458E
:1028B0002B7103D340F21A33A6E700240FB12B7912
:1028C0003B55124B002201341A70104B1A7898F8BD
:1028D00000309A4202D340F29A3395E70923A1458A
:1028E0002B7103D840F221338EE700240FB12B79EE
:1028F0003B55013404234C452B710AD340F222335B
:1029000082E700BF846D0020BECE0E00836D0020E4
:1029100000240FB12B793B55A24B30461978FFF7B5
:102920009FFEA14B013418604C4503782B7103D3F3
:1029300040F2273368E700240FB12B793B5501346F
:1029400000234C452B7103D34FF44A735CE70024FA
:102950000FB12B793B55944B1B6801345B782B717D
:102960004C4503D340F229334EE700240FB12B79B5
:102970003B558D4B327D1B681B789A4204F1010454
:102980001ED102234C452B7103D340F22D333BE77C
:1029900000240FB12B793B55013402234C452B7198
:1029A00003D340F22E332FE700240FB12B793B5590
:1029B0000134737E2B714C4525D340F22F3323E72E
:1029C000B27D9A422AD10A234C452B7103D34FF48E
:1029D0004D7319E700240FB12B793B5501340023C7
:1029E0004C452B7103D340F235330DE700240FB172
:1029F0002B793B55013400234C452B7103D340F216
:102A0000363301E700240FB12B793B550134002305
:102A1000A1452B7109D840F23D33F5E6634940F2F8
:102A20003A3001F01CFCF2E700240FB12B793B5542
:102A30005D4B327D1B681B789A4204F1010440F023
:102A4000FF8005234C452B7103D340F24233DBE674
:102A500000240FB12B793B55013424234C452B71B5
:102A600003D340F24333CFE600240FB12B793B551B
:102A7000013400234C452B7103D34FF45173C3E64B
:102A800000240FB12B793B55013410234C452B7199
:102A900003D340F24533B7E600240FB12B793B5501
:102AA000013401204C45287104D340F246332B6099
:102AB000ACE600240FB12B793B55013405234C457E
:102AC0002B7103D340F249339EE600240FB12B79DA
:102AD0003B55013424234C452B7103D340F24A3338
:102AE00092E600240FB12B793B55013401204C456F
:102AF000287103D340F24B33D9E700240FB12B796F
:102B00003B55013403234C452B7103D34FF45373CE
:102B10007AE600240FB12B793B550134B37D2B713C
:102B20004C4503D340F24D336EE600240FB12B79B0
:102B30003B55013404234C452B7103D34FF454739C
:102B400062E600240FB12B793B55013424234C4518
:102B50002B7103D340F2513356E600240FB12B7989
:102B60003B55013402234C452B7103D340F25233C1
:102B70004AE600240FB12B793B55013402234C4522
:102B80002B7103D340F253333EE600240FB12B796F
:102B90003B55013405234C452B710AD340F2563383
:102BA00032E600BF836D0020886D0020BECE0E008F
:102BB00000240FB12B793B55013424234C452B7154
:102BC00003D340F257331FE600240FB12B793B5556
:102BD000013406234C452B7103D34FF4567313E68F
:102BE00000240FB12B793B550134337D2B714C45BB
:102BF00003D340F2593307E600240FB12B793B553C
:102C00000134B37D2B714C4503D340F25A33FBE5BD
:102C100000240FB12B793B550134564B1B685A7871
:102C2000554B1A70554B00221A70544B1A78524B60
:102C30001B789A420DD3524A13780133137044E63D
:102C4000B27D9A42E9D04F4940F2633001F007FB70
:102C5000E3E70723A1452B7103D840F26E33D3E598
:102C600000240FB12B793B55013405234C452B71C2
:102C700003D340F26F33C7E500240FB12B793B55E6
:102C80003E4B19783B4B1868FFF7FEFC0134037884
:102C90002B714C4503D340F27333B5E500240FB1DB
:102CA0002B793B55334B327D1B681B789A4204F1DC
:102CB000010406D103234C452B710DD34FF45E73F1
:102CC000A2E5B27D9A4212D102234C452B7103D367
:102CD00040F27D3398E500240FB12B793B55013448
:102CE0004023A1452B7109D84FF461738CE5254928
:102CF00040F2813001F0B3FAF2E700240FB12B79F2
:102D00003B55013400234C452B7103D340F28533EE
:102D10007AE500240FB12B793B55164B327D1B68A9
:102D20001B789A4204F1010407D1336A4C451B78A1
:102D30002B710DD340F28A3366E5B27D9A4210D1F1
:102D400000234C452B7103D340F28F335CE5002404
:102D50000FB12B793B550134084A137801331370B6
:102D600063E7084940F2933001F079FAF4E7002074
:102D700028604BE5886D0020826D0020856D002065
:102D8000836D0020BECE0E0010B5044618B906496A
:102D90005F2001F064FA23681BB90349602001F049
:102DA0005EFA20680C3010BDBECE0E004360CA69CA
:102DB0009A420DD38A690260C8691A448A610A6F0F
:102DC000C01A1A44C86100380A6718BF012070474A
:102DD00001F1280202608B670020704701495220F0
:102DE00001F03DBABECE0E0013B5044618B90191EC
:102DF000FFF7F4FF0199E36923B1204602B0BDE873
:102E00001040184702B010BD10B5044608B9FFF7CE
:102E1000E5FF2046FFF7B8FF0023C0E91B33C0E9F8
:102E20001D3383828361036200F12803836610BD32
:102E30002DE9F0430E4689B0054620B9A94940F274
:102E4000DD2001F00CFA26B9A64940F2DE2001F09F
:102E500006FA33780E2B20D8DFE813F074006001F7
:102E6000740074001F000F00C0001F001F005C01F1
:102E70001F00740074007400740025B999494FF460
:102E8000E47001F0ECF97278D1094FEA52133DD0A9
:102E900013F0030306D0012B28D00624204609B0E6
:102EA000BDE8F08302F01F02012AF6D1B478062CA7
:102EB000F3D105A8039300F03FFD03AB0093F27834
:102EC0003179034607462846FEF7C0FF0528E5D0BE
:102ED000039B3F2B03D98349C92001F0C0F9039A12
:102EE0003946701C00F082FA0446D7E70DB9FFF7A7
:102EF00075FF2846FFF748FFB378212BCDD1B6F8F0
:102F00000720072AC9D100F10C01EAE7012BC4D13F
:102F10000DB9FFF763FF2846FFF736FFB378202B84
:102F2000074611D0222BB8D1B6F80730002BB4D108
:102F3000027DB6F80330838202F0010203F0010142
:102F40008A4229D10024A9E7B6F80730072BA4D17B
:102F50000DB9FFF743FF2846FFF716FFB37803705C
:102F6000B6F807304370831C05934378069300201E
:102F7000079000F079FD05A90020FFF775F90446D8
:102F800030B9594B03A9CDE9033500F01DFA0446C9
:102F9000002000F079FD81E78CB2C1F10301C9B2D4
:102FA0002846FFF721FF002CCCD101212846FFF74E
:102FB00057FB2146FFF768FB007803F09DFC28468D
:102FC000FFF776FB03F098FC07F12803C7E91B44E1
:102FD000C7E91D44BC613C62BB665FE7002128462F
:102FE000FFF73EFB0021FFF74FFBB37802789A42D0
:102FF000A8D01B06F47809D51CB1032CA2D0032459
:103000004CE701212846FFF7EFFE47E704F0FD03F8
:10301000012B97D0002CF2D10DB9FFF7DFFE284627
:10302000FFF7B2FE06462846FFF742FB2F4BCDE9DD
:103030000536F4698046ACB9336FF466C6E91C43C3
:10304000336A63B1D6E9080106F1180383E8030087
:10305000346205A94046FFF71DF9044600E0B4615B
:103060000021CFE7D6F87890B0694C4528BF4C4690
:1030700006F128072246394608F0CAFF336F234479
:103080007367A9EB0403F366336A00223C4432679A
:10309000B466002B3BD006F1200999E8030006F145
:1030A000180787E8030014463262F36EB06953B321
:1030B000F269B16E9A421BD808F0AAFFF369F26E6A
:1030C0007367D21AF266B26E1A44B26600212846BD
:1030D000FFF78AFE336AD3B199E8030087E803005B
:1030E0003462E2E7BECE0E0025310E00AD2D0E009B
:1030F0001A4608F08DFFF26EF36932679B1AF3618E
:10310000B3691344B361B369002BA2D100E0B3618A
:103110000024A5E703212846FFF766FE2846FFF7AF
:1031200073FE0FE710B5044660B90846FFF72CFEA2
:103130000378202B08D1811C07220C3008F068FF8F
:10314000204610BD0320FCE70620FAE77FB51446B1
:1031500006460D46FFF718FE838ADA0713D50121CC
:103160003046FFF77DFA0021FFF78EFAA3060078BC
:103170000CBF0123002301A9CDE901540393FFF7FC
:1031800073F804B070BD0820FBE700002DE9F3419F
:10319000804616460F4621B9284940F2D73001F043
:1031A0005EF84046FFF7F0FD838ADB07044643D50F
:1031B000002000F059FCA569002D35D1E36EB34223
:1031C00012D3A16E3246384608F022FFE36E6667DE
:1031D0009B1BE366A36E3344A366002000F054FCFF
:1031E000284602B0BDE8F081C4E906764046FFF704
:1031F0005FFA134BE26ECDE90034064662B1A16E70
:10320000A06908F005FFE36EE269D21AE261A269E3
:10321000C4E91B531A44A26169463046FFF73AF8E5
:10322000051E08BF9225D8E7236A1BB9C4E90876B2
:103230009225D2E71125D0E70825D1E7BECE0E00B2
:10324000AD2D0E000020704710B5044620B904498A
:1032500040F2432001F003F82368186810BD00BF56
:103260005FCE0E002DE9F04F2DED028B4B6885B03F
:1032700007460C4691466BB90868FFF7E5FF48B969
:10328000A5683DB9C7E90055284605B0BDEC028BDD
:10329000BDE8F08FB9F1400F04D9354940F29710DD
:1032A00000F0DDFF02F0F8FFE36801904B4528BF16
:1032B0004B46984604F110034FF0000A08EE103A0E
:1032C00056460125B8F1000F2DD0A368616843452B
:1032D0009B4628BFC34651B3019B5A46981908F034
:1032E00097FE00236360A368E268A3EB0B03A2EBE5
:1032F0000B02A360E260A8EB0B085E4433B9BAF19D
:10330000000F03D02068FFF79FFF2060E368002BC9
:103310002CD0A368002BD5D12268BAB9626016B14F
:10332000B14588BF0025019BC7E90036ACE7002BFB
:10333000D9D02168019A4B6818EE100AD3F804A07E
:1033400032445B46D0474FF0010ACCE70293216834
:103350004B680022D3F804B002A80123D84708B96B
:103360002061AFE7A3680133A360F0E71D46A9E73A
:1033700024CF0E00084B1A7882420CD0052818BFC3
:10338000064A187018BF137805481CBF23F00203C3
:103390001370FFF721B87047986D0020B46D0020BE
:1033A0007CCF0E0008B50020FEF7E6FEBDE8084021
:1033B0008020FEF7E1BE08B50020FEF7EBFEBDE879
:1033C00008408020FEF7E6BE38B505460C4603F0FF
:1033D000BFF9A84203BFD4E90001034BC3E90001D0
:1033E000102008BF002038BDB86D00207FB5C3880D
:1033F00093421E4628BF164693420D46144620D9D6
:10340000802002F065FEB4FBF0F202FB1040B0FA3F
:1034100080F0400903900020CDE9015600F024FB24
:1034200001A98020FEF720FF044620B9064980202C
:10343000FFF7CAFF0446002000F026FB204604B038
:1034400070BD0020E6E700BFB0CF0E002DE9F04FC1
:103450000B780E2B89B004460D4613D8A3B1013B5F
:103460000D2B11D8DFE813F0120024001600100015
:1034700035003B02100010001000100010021B026B
:1034800028023002852B1ED0062418E00320FFF707
:1034900071FFF9E7AB4800F0CFFF30B1AA4B012232
:1034A0001A60BFF36F8FBFF34F8FA84B1C780CB11E
:1034B000002404E0A64940F2424000F0D0FE20463D
:1034C00009B0BDE8F08FA14B1B78032BDCD10420A1
:1034D000DDE705230DF115008DF8143003F0CCF86D
:1034E0009DF815709B4D002307F01F072B60032FDD
:1034F00000F28881DFE817F004001C017D01D8008C
:1035000024B993494FF45A7000F0A9FE9DF8153084
:1035100013F0600FC3F3411040F0C680DB099DF843
:10352000161000F0B280062918D0082900F0A080FB
:10353000002940F0B980884C0222204608F090FD16
:10354000237843F001022270844A1278910744BF25
:1035500043F00303237002227F490FE09DF81830E7
:10356000022B11D0032B75D0012B40F09D80BDF8AC
:103570001B30002B00F0AC80794912220DF11500B0
:10358000FFF734FF04463BE0BDF81B30002B00F092
:103590009F80092B28BF09239846FEF7FDFDDFF821
:1035A000B0A106464FF009097EBB6B4C6D494246FF
:1035B000204608F02DFD2771A4F80290FEF7D4FDF7
:1035C00018B1E37943F02003E371FEF7E5FD664BA4
:1035D000C3E90004C3F80880BDF81B20DA600020AE
:1035E00000F042FA61498020FEF754FE044620B9FB
:1035F0005F498020FFF7E8FE0446002000F044FA0F
:10360000062C51D0002C63D05AE0736823B9514680
:1036100040F2D12000F023FE73685B6823B9514665
:1036200040F2D22000F01BFE0024039473680022B5
:10363000D3F804B03146012303A8D84740B9337A00
:1036400030461F44FFF700FEA144FFB20646ABE739
:103650000134EBE7BDF81B30002B39D0BDF8191051
:103660009DF8170000F0C2F90146E8B1027885E73D
:10367000364A1278052A03D1374A137001226BE7C4
:10368000042A11D1344B1870F8E7013908290BD8F6
:10369000DFE801F02B0A0E0A050A0A0A38002C4955
:1036A0004FF4637000F0DBFD05A8FEF7C9FD9EE056
:1036B000BDF81730012BF7D1FEF756FD18B90F24CE
:1036C00003F03CF8FBE6254A137843F0020313703D
:1036D0002C68002C00F0228103F03AF80446002800
:1036E0007FF4E6AE02F0EEFFE9E6BDF81730012BFD
:1036F000DAD1FEF739FD0028E1D0184A137823F01B
:103700000203E4E7114B1B78043B012B01D9082489
:10371000D6E79DF817302BB9FEF748FE0420FFF7D7
:1037200029FED5E7012B5BD1FEF720FE0520F6E749
:103730009DF8190003A9FEF735FD0746D0B91024FE
:10374000BEE700BFC06D00205C700240986D002095
:1037500024CF0E00B86D0020C46D0020B46D002091
:103760009CCF0E007DCF0E009C6D0020B8CF0E00C8
:10377000B0CF0E009DF80C1005AAFEF737FD062805
:1037800004467FF43FAF9DF8152012F0600F97D1EB
:10379000654B9DF80C101E789DF81630D20916D096
:1037A0007BB10A2B8CD1052EB1D138460192FEF7A0
:1037B000D7FD5E49019A08700DF11500FFF716FE5E
:1037C00015E0052EA3D159490B800222F4E70B2BFB
:1037D0007FF476AF052E9AD1BDF81730FF2B01D9B3
:1037E00007246DE79DF817203846FEF769FD04466B
:1037F00008E79DF81900020706D19DF8153013F06F
:10380000600F09D006245BE705A9FEF7F2FC062845
:1038100004467FF4F7AEF0E79DF81620424B9DF882
:1038200019401B78012A1DD0032A0CD0002AE9D1A7
:10383000052B02D023077FF46AAF204602F0D8FEA2
:103840003A490880C1E72707DCD4BDF81720002AD1
:10385000D8D12607D6D0052B7FF459AF204602F0E9
:10386000A9FE35E72007CDD4BDF81720002AC9D11D
:103870002107C7D0052B7FF44AAF204602F0D8FEBF
:10388000204603F0E3F923E7274B1B78002B3FF496
:103890000FAE274940F2564000F0E1FC08E6224B0B
:1038A0001B78012B04D0224940F25C4000F0D7FC89
:1038B0000020FFF75FFDFBE54FF08043D3F838347D
:1038C000DA070AD50220F4E7174B1B78012B04D83E
:1038D00017494FF48E6000F0C2FC0120E9E7CB7875
:1038E000032B3FF4D1AD8B785B0604D0104940F236
:1038F0007E4000F0B4FC0F4E336893B10022716833
:10390000E87832609847044600287FF4D9AE3368DF
:1039100023B1AB78002B7FF4CBADE3E602F004FFDC
:10392000CDE50E24CCE600BF986D0020C46D0020CC
:1039300024CF0E00B86D002008B140230360014879
:10394000704700BFC46D002070B54FF0805286B044
:10395000D2F8A830D2F8A42000926FEA83436FEA2D
:1039600093430B4A0B4E9BB20D2102A808F080FB3B
:1039700002AD002402A808F0B7FB844201D306B0D0
:1039800070BD15F8013B06F8013B0134F2E700BFBA
:10399000C0CF0E00988F0020F8B5124B53F820507E
:1039A0002B7813B9AE1C3046F8BD0020FFF7C4FFDA
:1039B0000D4F0646013D002315F8012F5C1C2AB966
:1039C0006400E4B244F440743480ECE71E2B03D965
:1039D0003946FC2000F043FCE3B22A7826F8132095
:1039E000EAE700BF58D00E00CBCF0E00034608B95F
:1039F000FFF7D2BF012807D0022805D0032803D043
:103A0000042801D0052809D1054800EB4303587864
:103A100020B1044B53F82030002BE9D1002070472F
:103A200070D00E0058D00E0072B6024A13680133EF
:103A300013607047046E0020034A1368013B136053
:103A400003B962B6704700BF046E0020EFF3058330
:103A5000C3F308032BB9EFF31480C04300F0010057
:103A6000704701207047000008B5FFF7EFFF0128FD
:103A700003D00449432000F0F2FBBDE80840FFF703
:103A8000D3BF00BF7CD00E0008B5FFF7DFFF0128D1
:103A900003D00449512000F0E2FBBDE80840FFF7E5
:103AA000CBBF00BF7CD00E00EFF30583C3F3080348
:103AB0008BB1103B5AB2002AABBF02F16043074AF8
:103AC00003F5614303F00F03ACBF93F80003D05C30
:103AD0004009C0B270470F20704700BF14ED00E0EE
:103AE00030B53AB11368DB430A4D0144814204D139
:103AF000D84330BD4FF0FF33F6E710F8012B5340A9
:103B0000082213F0010418BF2C46013A84EA53033B
:103B1000F7D1EBE72083B8ED38B50D46044618B968
:103B20000549B32000F09BFB2368C3F84853236882
:103B3000C3F8085338BD00BFB9D00E0070B50D46AC
:103B40001646044618B90649A92000F088FB2368E8
:103B5000C3F8445316B12368C3F8045370BD00BFC3
:103B6000B9D00E0037B50C46054618B90749BA203A
:103B700000F075FB2B68185928B100221A511B5907
:103B80000193019B012003B030BD00BFB9D00E00EE
:103B90002DE9F8430F461546044618B93249552019
:103BA00000F05DFB1FB93049562000F058FB1DB9ED
:103BB0002D49572000F053FB63792C4A2C4E42F8D4
:103BC00023502C4AB61A2C4A02EBC303F6081B7981
:103BD000360490463BB146F002002849FDF728F82C
:103BE0000820BDE8F8833D88D4F80090B5F5805FE3
:103BF00004D323494FF4BE7000F031FBC9F80855D7
:103C0000BF7894F90450072F03D91E496B2000F0A8
:103C100026FB002DB6BF1C4B05F1604505F00F05D6
:103C20004FEA4717FFB2AABF05F561455F5585F812
:103C3000007394F90430002B08DB0122590903F0CA
:103C40001F0302FA03F3114A42F82130637908EBAB
:103C5000C3020121117146F0030048F833400C49BA
:103C6000FCF7E6FF0020BCE7B9D00E00106E002084
:103C700028FF0E00F8FE0E00086E0020EDD00E00AA
:103C80000FD10E0039D10E0014ED00E000E100E08C
:103C900065D10E0010B5044618B90449872000F01C
:103CA000DEFA236801221A6010BD00BFB9D00E00F1
:103CB00010B5044618B904498D2000F0D0FA2368E5
:103CC00001225A6010BD00BFB9D00E00F7B50D46F5
:103CD00016461F46044618B91349962000F0BFFA4D
:103CE00023684FF48030A840C3F80803236805F127
:103CF0005001C3F848038900236889B200225A5052
:103D00005B580193019B236805F5A87526F07F4653
:103D100043F825602368C3F8440317B12368C3F848
:103D2000040303B0F0BD00BFB9D00E002DE9F34786
:103D30000E4615469846044618B93949CD2000F07C
:103D40008EFA4FF4803909FA06F949462046FFF702
:103D5000E3FE2268D2F8041502EB860206F1500752
:103D6000D2F84035C2F84015BF002268BFB24FF00C
:103D7000000A42F807A05B1AD259009223F07F4351
:103D8000012B009A25F07F450BD1264B4FF4806024
:103D900043F001039847236843F807A0DB590193D8
:103DA000019B2368D3F80475C3F84493EB1B23F0FD
:103DB0007F43012B06F5A876236818D1013543F817
:103DC0002650184B4FF4806043F001039847236856
:103DD000D3F804359F4208D1204601224946FFF717
:103DE000ADFE002002B0BDE8F0870D20FAE743F8F1
:103DF00026502168D1F804356A1ED21AC8F1FF187E
:103E000022F07F4208F57F489045EED3002AE3D1A7
:103E1000013541F826502268D2F804259342DAE7AA
:103E2000B9D00E0080D10E000A460221FFF786BEEF
:103E30004FF48271FFF796BE4FF4803303FA01F11D
:103E4000FFF76ABE5031890089B2FFF78BBE036865
:103E500001F5A87153F8210070470368D3F80405F1
:103E60007047000090F90430002B09DB5A0901214A
:103E700003F01F0301FA03F34032024941F82230F4
:103E8000704700BF00E100E0024B034A1B68106866
:103E9000184700BF106E0020086E002038B51B4C7C
:103EA000A3781BB91A49502000F0D9F9194A1368B0
:103EB000002B114625DC6078A388E27BB0B1607BE3
:103EC000851A9D420FDC002363706369A08003B1F3
:103ED00005330B602179104800F0BAF9A0B1BDE8B4
:103EE000384003F051B81344A380F3E7A07B851852
:103EF0009D4204DB01236370A0802369E7E79B1ADE
:103F0000F2E7FF3B1360E5E738BD00BF146E002009
:103F100086D10E00686E0020446E002038B5264D14
:103F2000AB7804461BB12549812000F098F91CB9F3
:103F30002249822000F093F96378002B39D0A278CF
:103F40009A4236D2E378002B33D0E368002B30D08E
:103F500054220021184808F083F8142221461848FA
:103F600008F056F8E278A37816491344AB804FF472
:103F700080732B80E368AB602B7B85F82030E3688F
:103F8000AB6223696B62FF2385F821300E4A0F4B29
:103F9000EB6201F1100000F0B5F858B90123AB70E5
:103FA000A178E3780A481944C9B2BDE8384000F066
:103FB0004FB9072038BD00BF146E002086D10E0017
:103FC000206E0020346E00209D3E0E00C8D10E00F1
:103FD000446E002010B5074B9B78012B044603D09C
:103FE0000549B12000F03BF921460448BDE81040E6
:103FF00000F0F2B8146E002086D10E00446E00204E
:10400000014800F00DB900BF446E002038B5054CE2
:10401000A27805461AB90449C52000F020F92561A7
:1040200038BD00BF146E002086D10E0038B5054C97
:10403000A27805461AB90449CD2000F010F965614F
:1040400038BD00BF146E002086D10E000178036ACF
:10405000C26821B1C3F80C25002343707047C3F830
:104060000825F9E710B5037D0446002B3FD183698D
:104070007BB9E278A378934213D12178236AE2686E
:1040800061B1C3F8082501236370A3780533236168
:104090001BE098472379022BEBD010BDC3F80C2509
:1040A000F1E71AB92046FFF7D1FFEEE72078236A3F
:1040B000E168C8B1C3F80815A37813FB02F31B121B
:1040C000012105336170236121752379022BE4D12D
:1040D000E369216918682246FDF73AFC0028DCD024
:1040E000BDE8104002F050BFC3F80C15E4E7FFF73D
:1040F000ADFF0023C278037583789A1A53431B12CD
:10410000C4E700002DE9F047037905460C46164642
:104110001BB12D499D2000F0A2F8A3681BB92A49C4
:104120009E2000F09CF863681BB927499F2000F08F
:1041300096F863781BB92449A02000F090F8AE618E
:104140002378A7682B70A368204AC5E90233636807
:104150002B626378AB70E068E8610021FDF7D6FB65
:1041600068B9DFF86C80DFF86CA004464FF00309F3
:104170003FB92846FFF76AFF01232B713846BDE897
:10418000F087F9071AD563091BD0012B4FF6FF738F
:1041900018BF002304F01F06F340DA0704D4514689
:1041A0004FF4F67000F05BF8202C3ABF26464FF033
:1041B000A043434606F5E07643F8269001347F0895
:1041C000D6E74FF0FF33E5E7CCD10E0065400E0097
:1041D00000030050D4CC0E0070B5037904460D46A0
:1041E0001BB90E49CD2000F03AF8A3681D4203D157
:1041F0000A49CE2000F033F8022320462371E560FF
:10420000FFF724FFA168A66929430025A160257551
:10421000A561FFF727FFA661284670BDCCD10E002F
:1042200038B50379022B044603D00849E32000F097
:1042300016F8E3691868FDF7BBFB05462046FFF753
:1042400005FF0DB901232371284638BDCCD10E00DE
:1042500083788B4226BFC17000200720704707B5C6
:10426000CDE900016A46002144F2020002F076FE28
:1042700003B05DF804FB10B561B1B2FBF3F403FBCE
:104280001424A4B244B9C0E9001484608281C381BB
:10429000204610BD0E20FCE70920FAE737B550E8AC
:1042A000013F9DB2C48925448489A54228BF2D1BA6
:1042B0000489A54202BFBFF32F8F002207E0C5EAA1
:1042C000030540E80154002CE9D14FF001028DF8BC
:1042D00003200193019B9DF803200B6002F0FF0374
:1042E00022B10B880068184403B030BD1846FBE7C4
:1042F0000A884B889A4209D150E8012FC2EA02424B
:1043000040E80123002BF7D10120704700207047BF
:1043100037B550E8023F1FFAA3F5C488A54202BF93
:10432000BFF32F8F00220DE0C48925448489A54264
:1043300028BF2D1BC3EA054540E80254002CE8D1F4
:104340004FF001028DF803200193019B9DF803209B
:104350000B6002F0FF0322B14B880068184403B0E1
:1043600030BD1846FBE70A884B889A4209D150E8CD
:10437000022FC2EA224240E80223002BF7D101209B
:1043800070470020704710B5034653E8000F0A46F7
:1043900043E8002494F0000FF7D110BD10B5034698
:1043A00053E8000F40EA010243E8002494F0000FB4
:1043B000F6D110BD10B5034653E8002F42EA0100C4
:1043C00043E8000494F0000FF6D110BD10B5034689
:1043D00053E8000F00EA010243E8002494F0000FC4
:1043E000F6D110BD10B5034653E8002F02EA0100D4
:1043F00043E8000494F0000FF6D110BD10B5034659
:1044000053E8002F02EB010043E8000494F0000F92
:10441000F6D110BD10B5034653E8002FA2EB010002
:1044200043E8000494F0000FF6D110BD0121FFF71E
:10443000B5BF0121FFF7BEBF0021FFF7C7BF0021B5
:10444000FFF7D0BF10B50446002834D003681BB96D
:104450001A49FF20FFF703FF636823B917494FF498
:104460008070FFF7FCFEA36823B9144940F20110E5
:10447000FFF7F5FEE36823B910494FF48170FFF7A9
:10448000EEFE238A23B90D4940F20310FFF7E7FE41
:10449000D4E9012321689B1ADBB20A60013BDBB23D
:1044A000FF2B226802D10020107110BD1168481C3A
:1044B00010600B70F2E70E20F7E700BF17D20E0076
:1044C00038B5044620B912494FF49270FFF7C7FE81
:1044D0000020FFF7C9FA2268616813688B4215D97A
:1044E000591E116013F8015C228AE36802FB05354E
:1044F0002268A36811685B1A1179DBB2994200D275
:1045000013710020FFF7C0FA284638BD0025F8E7F0
:1045100017D20E0038B50C46054620B90E4940F2B8
:104520004710FFF79CFE24B90B494FF4A470FFF726
:1045300096FE0020FFF798FA2A681368591C11604C
:10454000E968641A298AB4FBF1F41C70BDE83840AC
:104550000020FFF799BA00BF17D20E0010B504462D
:1045600018B906493120FFF77AFEA2682AB16369BB
:104570002168206998470023A36010BD4FD20E0028
:104580000EB433B5059D044618B911494220FFF712
:1045900066FE63691BB90E494320FFF760FE23687E
:1045A0001BB90B494420FFF75AFE63681BB9084941
:1045B0004520FFF754FE35B106AB01AA2946204637
:1045C000019300F079F802B0BDE8304003B07047C5
:1045D0004FD20E000A2938B504460D4602D10D21EE
:1045E000FFF7F8FFA3682268591CA160D554D4E9ED
:1045F00001329A4204D32046BDE83840FFF7AEBFEF
:1046000038BD00002DE9F84F9846DDE90A4315460C
:1046100082460F460A464FF00109AA420FD2C14511
:1046200038BFC14613F0010B01D16CB9002401263B
:10463000B8F1010F1BD908F1FF386E43F8E709F113
:104640000109B2FBF5F2E8E79B070ED5B8F1000FC0
:104650000CBF30262026A145E9D2013C3146504608
:10466000FFF7B8FF002CF6D1E0E72026F3E7B7FB11
:10467000F6F39D42E1D9DFF83C80B7FBF6F35046F4
:1046800018F8031006FB1377FFF7A4FF3346AB427D
:10469000B6FBF5F6F1D2BBF1000F02D00CB1A1458B
:1046A00001D3BDE8F88F20215046013CFFF792FF6F
:1046B000F4E700BFB2D20E002DE9F74F8846174647
:1046C000054620B9B14940F25220FFF7C8FD6B6999
:1046D00023B9AE494FF41570FFF7C1FD2B6823B91C
:1046E000AA4940F25520FFF7BAFD6B6823B9A749E4
:1046F00040F25620FFF7B3FDB8F1000F00F0428101
:1047000018F8011B49B92B7B002B00F03B81284690
:1047100003B0BDE8F04FFFF721BF252940F0B78077
:10472000002698F800302D2B424608F1010823D0CE
:10473000302B24D02B2B25D000242A2B02F1010171
:1047400023D13B681A1D3A601B680A461C44137843
:104750002E2B26D101324FF0000A104610F8011B13
:10476000A1F1300CBCF1090F1DD80A2303FB0A1379
:10477000A3F1300A0246F0E746F00106D1E746F021
:104780000206CEE746F00406CBE711F8013CA3F1A0
:1047900030000928DBD80A2202FB0434303C0A46E8
:1047A000CBE74FF0000A12F8011B01F0FB0068286C
:1047B0009046F8D0782909D86F290CD8632962D09F
:1047C00022D8252963D0582900F0888098F8003035
:1047D000002B95D197E770390829F7D801A353F832
:1047E00021F000BF5F490E00CD470E00CD470E00FF
:1047F000ED480E00CD470E00CB480E00CD470E0011
:10480000CD470E00DD480E00642901D06929DDD1B5
:104810003A68111D3960D2F8009089EAE972A2EB7A
:10482000E9724FF0010B092A35DCD34538BFD34676
:104830002CB1B9F1000F01DB720700D5013CB307C1
:1048400002D5BAF1000F03D0F00701D44CBB00240D
:10485000B9F1000F2DDAC9F100092D212846FFF723
:10486000B9FE06F00302022A04D1BAF1000F01D109
:104870001CBB0024CDE9004653460A22494628467F
:10488000FFF7C0FEA2E73B681A1D3A601978284678
:10489000FFF7A0FE9AE70A230BF1010BB2FBF3F23C
:1048A000C1E7A345D4D220212846013CFFF792FE60
:1048B000CCE77107D5D52B21D0E7A345DAD230213B
:1048C0002846013CFFF786FED2E73968CDE900466D
:1048D0000A1D3A6053460A220968D0E739680A1D62
:1048E0003A60CDE9004653461022F5E73B681A1DB1
:1048F0003A6016F00106D3F8009028D1B9F1000F04
:1049000003D0484607F0F0FB0646B44200D904BB8A
:1049100009F1FF3919F8011F00293FF457AF284664
:10492000FFF758FEF6E728460136FFF753FE19F861
:1049300006100029F7D1A642BFF448AF002C3FF47F
:1049400045AF20212846013CFFF744FEF3E700264F
:10495000EDE720212846013CFFF73CFED5E73B6808
:104960001A1D3A60302128461C68FFF733FE782173
:104970002846FFF72FFE00220823CDE9003221460A
:1049800010227CE703B0BDE8F08F00BF7DD20E009F
:1049900013B50B46114680B9104B1148114AC01A85
:1049A0000E23C0080093104B0004104940F0010092
:1049B000FCF755F90E2002B010BD4BB9074B084863
:1049C0000B4AC01AC0080E2300930004064BECE704
:1049D00003601B6802B0BDE810401847F8FE0E00E7
:1049E00098FF0E00C2D20E0058D40E00C7D20E009F
:1049F000F6D20E002DE9F34188B93D4B3D483E4AC1
:104A0000C01AC0080E243D4B009400043C4940F0FD
:104A10000100FCF724F9204602B0BDE8F0814AB954
:104A2000334B3448374AC01AC0080E24334B009425
:104A30000004EBE7D0F800E0BEF1000F09D12C4BE9
:104A40002C48314AC01AC00808242C4B009400049A
:104A5000DCE74BB9264B27482C4AC01AC00809246A
:104A6000264B00940004D1E74568D5F80480B3FBD9
:104A7000F8F508FB15354DB11D4B1E48244AC01AE8
:104A8000C00809241D4B00940004BFE78D0709D01E
:104A9000174B18481F4AC01AC0081024174B00941F
:104AA0000004B3E712F0030F09D0114B11481A4A62
:104AB000C01AC0081024114B00940004A6E7C56872
:104AC000A9420BD34D1EEC180569AC4206D8DEF89E
:104AD0000C40A44602B0BDE8F0416047044B0548D5
:104AE0000E4AC01AC0081024044B009400048DE73D
:104AF000F8FE0E0098FF0E00C2D20E006AD40E001F
:104B0000C7D20E0044D30E00F0D20E0003D30E0025
:104B10004AD30E0074D30E008CD30E00AFD30E0018
:104B2000F7B580B92A4B2B482B4AC01AC0080E246F
:104B30002A4B009400042A4940F00100FCF78FF84A
:104B4000204603B0F0BDD0F800C0BCF1000F09D181
:104B50001F4B2048234AC01AC00808241F4B00944A
:104B60000004E8E74AB91A4B1A481F4AC01AC0089D
:104B700009241A4B00940004DDE74768D7F800E0E9
:104B80000EF1FF370F4209D0114B1248174AC01AD5
:104B9000C0081024114B00940004CCE7C768B94248
:104BA0000CD304694D1E0EFB0255A54206D8DCF855
:104BB0001040A44603B0BDE8F0406047044B0548F0
:104BC0000B4AC01AC0081024044B00940004B2E73A
:104BD000F8FE0E0098FF0E00C2D20E007DD40E002B
:104BE000C7D20E00F0D20E0003D30E00D6D30E00B3
:104BF000FCD30E0070B550B90E4D0F4C0026641B4F
:104C00001423B4FBF3F4B44208D1002010E003688D
:104C1000002BF1D0BDE87040DB6918472B6813B951
:104C200001361435EFE7DB69284698470028F7D0AE
:104C300070BD00BF0401002018010020014B43603B
:104C40000020704790D40E0008467047002070473F
:104C5000024B1868003818BF012070476C6E0020A6
:104C600008B50248FFF7EBFB002008BD6C6E002082
:104C700008B510461A4607F0CBF9002008BD000021
:104C80002DE9F043814687B014480E4615469846F4
:104C9000FFF7CCFB0446F0B90746BD4215D10F48DB
:104CA000FFF7CDFBD9F808305BB102228DF8002068
:104CB0000022CDE90126CDE90325CDF81480684610
:104CC0009847204607B0BDE8F08306EB073000F0B8
:104CD000D5FA0137E1E71124F3E700BF6C6E00203D
:104CE0002DE9F041804686B011480F4616461D4614
:104CF000FFF79CFB0446C8B9AA083146384600F0C5
:104D0000EBFA0B48FFF79BFBD8F8083053B10122B0
:104D10008DF800200C9A0592CDE90147CDE9036595
:104D200068469847204606B0BDE8F0811124F9E7AF
:104D30006C6E00202DE9F74F99469DF830300093B6
:104D400088469346064618B92349B620FFF787FAE6
:104D5000F18872794A43043A4A4505D81E490192BE
:104D6000C420FFF77CFA019ADBF80070B6F806A0C1
:104D700007EB0901914209F1040488BFA2EB09077E
:104D8000B4FBFAF5CBF800700AFB154445B9AAEB61
:104D9000040BBB4528BFBB462FB903B0BDE8F08F5D
:104DA0003668013DF2E7009B043408EB050034440B
:104DB0005A466BB12146A7EB0B0707F029F9BA4514
:104DC0005D443668D3464FF0000428BFBB46E3E796
:104DD00001462046EFE700BFBCD40E00FFF732BB10
:104DE000F8B546790146721E0546002393422D68A8
:104DF00003D30024A64202D8F8BD0133F6E70F68BA
:104E00002846FFF787FB01343946F3E72DE9F843DD
:104E1000CD1C068A0746FFF753FB043E3544044683
:104E2000B5FBF6F5F0B14FF48073EDB28380C68028
:104E3000013D076081464FF00008A84512D2384670
:104E4000FFF73EFB064648B163790133637108F111
:104E50000108C9F8000007608146EEE72046FFF729
:104E6000BFFF34462046BDE8F88301210430FFF738
:104E7000C5BA10B5012104460430FFF7CBFA10F093
:104E8000FF0F04D12046BDE81040FFF7A9BF10BDB9
:104E90001FB5144603920022009203AAFFF74AFFAF
:104EA000039BA34203D00349F620FFF7D8F904B0CF
:104EB00010BD00BFBCD40E001FB5144603920122E2
:104EC000009203AAFFF736FF039BA34204D00349D5
:104ED0004FF48070FFF7C3F904B010BDBCD40E00CE
:104EE00082680023936082681361826853618268DC
:104EF000D3608268536082681360704770B50C4657
:104F0000064618B90A493A20FFF7A9F91CB9084919
:104F10003B20FFF7A4F97568286818B1B3682146EB
:104F2000984718B92B6823602C6070BD2D68F3E793
:104F3000F4D40E0010B5044618B905495120FFF706
:104F40008EF96368186808B102681A6010BD00BF66
:104F5000F4D40E0010B5044618B903495D20FFF7DC
:104F60007EF96368186810BDF4D40E0038B50C469D
:104F7000054618B90A496920FFF771F91CB90849B3
:104F80006A20FFF76CF96B68186820B1A04203D162
:104F900002681A60012038BD03460068F5E700BFCB
:104FA000F4D40E0010B50D49A1F58C72914201D8D0
:104FB00000200FE08C1AE30F03EBE4035B1002EB1D
:104FC000C30452F83330834205D802D204F10802F8
:104FD000ECE7606810BD2146E8E700BFF8D90E0095
:104FE00008B5FFF7DFFF024B002808BF184608BDD1
:104FF000CAD80E00F0B578B371B36BB300241C604F
:105000000A44DB274FF0DC0C4FF0DD0E1C688A42AF
:1050100004F1010500EB040604D11D60C0233370C8
:105020000020F0BD0E78C02E05D0DB2E0CD01D6008
:105030000D78055506E01D6007551C68651C1D6050
:1050400000F804C00131E1E71D6006551C68651CCD
:105050001D6000F804E0F5E70E20E2E710B580B32C
:10506000D0E902239A422ED00378012B0FD0022BD5
:1050700021D053B9C02928D0DB2902D101230370E4
:1050800003E04368541C84609954112006E0DC2935
:1050900005D0DD290AD0022303700B2010BD511C5E
:1050A00043688160C02199540023E8E7511C816066
:1050B0004368DB21F7E7C029E7D100230370836051
:1050C000E3E70E20EAE70420E8E71846E6E70000F9
:1050D00038B5074C051E04F1080318BF1C462368A9
:1050E0002BB11A6822605B6828469847F7E738BDFD
:1050F000786E002020B9054B01225A70FFF7E8BFF7
:10510000012802D1014A9070F8E77047706E0020C4
:10511000014B1878704700BF706E002038B50C4CFA
:1051200023789BB90B486360A3602361E36000F0C0
:1051300009F9054600F01AF901232370064BD3F84C
:1051400000340BB10123A370284638BD8525F5E74F
:10515000706E0020F5500E000000014038B51B4C69
:105160002378054623B91A4940F23310FFF777F840
:10517000637803F0FF00ABB115B16B68002098476E
:105180000020FEF771FC6368002001336360FEF7C6
:105190007BFC6368C3B9BDE838400D4940F24F104D
:1051A000FFF75DB8FEF760FC25B1A26813463BB976
:1051B0002A60A5606368002BE5D100F0F9F8E2E70A
:1051C0009D42F7D01B68F2E738BD00BF706E00202B
:1051D000F8D90E0038B50F4C237823B90E494FF497
:1051E000AA70FFF73CF8636823B90B4940F25510E9
:1051F000FFF735F80020FEF737FC6368013B63607A
:10520000656815B900F0ECF86570BDE8384000201D
:10521000FEF73ABC706E0020F8D90E0010B5074CAE
:1052200023784BB9064B002808BF184600F038F920
:1052300008B90123237010BD8520FCE7846E00208F
:1052400035DA0E0008B500F06EF9BDE8084000F050
:1052500071B907B50190FFF7F5FF019800F04CF91F
:1052600000F05AF9002003B05DF804FB024AD2F8BE
:105270000034002BFBD0704700E001400A4908B51C
:105280000223C1F80435BFF36F8FBFF34F8FC1F80E
:105290000805FFF7EBFF0023C1F80435BFF36F8F5C
:1052A000BFF34F8F08BD00BF00E0014010B5094CAF
:1052B0000123C4F80435BFF36F8FBFF34F8F016034
:1052C000FFF7D4FF0023C4F80435BFF36F8FBFF39B
:1052D0004F8F10BD00E001400E4B10B50124C3F804
:1052E0000445BFF36F8FBFF34F8F01EB8204401A69
:1052F000A14208D1074B0022C3F80425BFF36F8FEA
:10530000BFF34F8F10BD431851F8042B1A60FFF7FD
:10531000ADFFEDE700E0014010B5034653E8000F94
:1053200000EA010243E8002494F0000FF6D110BD1A
:1053300000F18040002382B0036003680193019B69
:1053400002B0704710B5044618B90649A420FEF70C
:1053500086FF054A107918B901211460918010BDAB
:105360008520FCE736DA0E00886E002008B50C4B6D
:105370001B791BB90B49BD20FEF771FF0A4B1A6858
:10538000D20704D4C02283F8002301221A604FF010
:1053900080420123C2F81835044A137008BD00BFCB
:1053A000886E002036DA0E0000E100E0A58F0020B4
:1053B00008B5094B1B7923B908494FF48170FEF7F2
:1053C0004EFF4FF48070FFF7B3FF4FF08043012290
:1053D000C3F804231A6008BD886E002036DA0E0078
:1053E00010B50E4C227922B90D494FF48570FEF7A5
:1053F00036FF4FF080420121C2F808134FF480704D
:10540000FFF796FF074B1960D2F80C3403F0011335
:10541000B3F1011FF8D00023637110BD886E002026
:1054200036DA0E000400004010B5124B1B6873B151
:105430004FF48070FFF77CFF4FF080430122C3F8E8
:1054400008230D4B587910B95A711B6898470B4BBC
:105450001B6873B14FF48270FFF76AFF4FF080430F
:105460000222C3F80823044BBDE810401B6801204A
:10547000184710BD00010040886E00200401004064
:1054800000F1804382B01A68002A14BF0120002076
:1054900004D000221A601B680193019B02B0704780
:1054A00010B5044618B911497020FEF7D8FE104B0C
:1054B0001A78C2B922784FF08041C2F34002C1F895
:1054C0008025227802F00102C1F87825094A116886
:1054D000C90704D4C02182F8001301211160012200
:1054E0001A70002010BD8520FCE700BF71DA0E00A5
:1054F000A68F002000E100E010B5044618B9044969
:10550000ED20FEF7ACFE034B22681A6010BD00BF11
:1055100071DA0E00986E00204FF080434FF46072F5
:10552000C3F8042370474FF080434FF46072C3F810
:1055300008237047014B00221A607047986E0020C4
:1055400070B54FF08043D3F8044366070ED54FF48F
:105550008470FFF795FF48B1334D2A6822B933496B
:105560004FF48B70FEF77BFE2B689847A5060FD58E
:105570004FF48A70FFF784FF50B12D4D2A6822B98D
:105580002A4940F21F10FEF76AFE2B680020984758
:1055900060060FD54FF48C70FFF772FF50B1244DA9
:1055A0002A6822B921494FF49370FEF758FE2B6800
:1055B0000120984721060FD54FF48E70FFF760FF4A
:1055C00050B11C4D2A6822B9184940F22F10FEF73D
:1055D00046FE2B6800209847E2050FD54FF49070E7
:1055E000FFF74EFF50B1134D2A6822B90F494FF40F
:1055F0009B70FEF734FE2B6801209847A30511D558
:105600004FF49270FFF73CFF60B10A4C226822B958
:10561000064940F23D10FEF722FE23680220BDE855
:105620007040184770BD00BF906E002071DA0E0008
:10563000946E0020986E002008B5FFF781FFBDE84A
:105640000840FFF7F1BE000010B5054C22681AB9FA
:1056500004495120FEF703FE2368BDE810401847B7
:105660009C6E0020A6DA0E00034B1868A0F1080318
:1056700058425841704700BF30010010074B1B686B
:10568000082B06D1064B1B68052B04D8054AD05CB5
:105690007047002070470120704700BF30010010A4
:1056A0003401001050DB0E0008B5FFF7DDFF10B12C
:1056B000034B00221A60034B00221A7008BD00BF82
:1056C0001C7C0240A56E002007B5094A0023137018
:1056D000084AADF8053013708DF8073001238DF8B6
:1056E0000430054B01A81B68984703B05DF804FB24
:1056F000A46E0020D46F0020D06F002070470000FF
:105700009A42F8B506460C4617461D4604D214497F
:105710004FF4E970FEF7A3FD23684BB103F060433B
:10572000B3F1005F04D00E4940F2D310FEF797FDAD
:105730006068854209D90023736023683360AF42F3
:105740000CD1003818BF0120F8BD756023683360A4
:105750002368401B2B4460602360F0E70020F3E7E0
:10576000ECDA0E0070B50B6803F06043B3F1005F34
:1057700005460C46164604D00A4940F2F910FEF7D9
:105780006EFD63682268B34228BF3346C5E9002333
:1057900060682268C01A60601A440038226018BF2E
:1057A000012070BDECDA0E0070B50B6803F06043A9
:1057B000B3F1005F05460C46164604D00C4940F292
:1057C0001A20FEF74CFD63689E4228BF1E4666B154
:1057D0002368C5E9003663689B1B63602368301E3D
:1057E0003344236018BF012070BD3346F1E700BF8A
:1057F000ECDA0E0038B500F00F05082D044604D988
:10580000074940F2A220FEF72AFD064814F0800F57
:10581000A0F1900308BF184600EB051038BD00BF8B
:10582000ECDA0E00406F002038B500F00F05082DAF
:10583000044604D9054940F2B520FEF710FD14F0E6
:10584000800F14BF00201020284438BDECDA0E0071
:1058500038B500F00F05082D044604D906494FF469
:10586000B970FEF7FCFC054A054B14F0800F08BF29
:10587000134633F8150038BDECDA0E007CDB0E0061
:1058800060DB0E0038B500F00F05082D044604D982
:10589000084940F2B740FEF7E2FC074B14F0800FD6
:1058A00014BFD3F81005D3F81405E84000F0010048
:1058B00038BD00BF20DB0E000070024038B500F09C
:1058C0000F05082D044604D9074940F29B10FEF746
:1058D000C6FC064A064B14F0800F08BF1346012091
:1058E0005B5D984038BD00BFECDA0E0072DB0E0045
:1058F00056DB0E00F8B50B6803F06043B3F1005FB0
:1059000006460C46174604D110494FF40E70FEF7B8
:10591000A6FC6568BD4228BF3D46402D04D90B4911
:1059200040F24220FEF79BFC094F21682A46384688
:1059300006F06EFBC6E9007560682268401B606077
:105940002A440038226018BF0120F8BDECDA0E00AE
:10595000D86F0020F8B50B6803F06043B3F1005F27
:1059600006460D46174604D1124940F25B20FEF769
:1059700076FC6C68BC4228BF3C46402C16D90D49C9
:1059800040F26520FEF76BFC0B4F29682246384633
:1059900006F03EFB376074606B681B1B6B602B6806
:1059A000201E23442B6018BF0120F8BD002CEBD132
:1059B0003460F0E7ECDA0E00D86F002008B5002064
:1059C000FEF752F8084B094A1868032148B949F212
:1059D0007530186011601860BDE808400020FEF7BF
:1059E00053B81160F8E700BF00EC064014ED064024
:1059F00008B50020FEF738F8084B094A186848B97E
:105A000049F27531196010601960BDE80840002046
:105A1000FEF73AB800231360F7E700BF00EC06403A
:105A200014ED0640024940F28520FEF718BC00BF85
:105A3000ECDA0E00010610B5044604D4154940F214
:105A4000B630FEF70CFC220704D5124940F2B730FD
:105A5000FEF705FC230704D10E494FF46E70FEF7E4
:105A6000FEFBFFF721FE2046FFF7C4FE837B032BDE
:105A70000BD12046FFF7D8FE012303FA00F0C14303
:105A8000BDE810400448FFF747BC0368002BF0D086
:105A900010BD00BFECDA0E00A86E00208720FFF7D3
:105AA000C9BF8620FFF7C6BF8520FFF7C3BF84208C
:105AB000FFF7C0BF8320FFF7BDBF8220FFF7BABF4B
:105AC0008120FFF7B7BF000008B5FFF7EDFD084BD9
:105AD00093F89E20032A06D1BDE8084005486FF0E0
