:020000040002F8
:20600000E0F302201D6402002564020031620200296402002B6402002D6402000000000035
:206020000000000000000000000000002F6402003164020000000000336402003564020000
:20604000D57F0200E5F3022037640200376402003764020037640200C9790200376402009B
:206060003764020071850200C18502003764020037640200E57F0200376402003764020069
:206080007D8802000D80020037640200376402003764020031830200698302006D830200FD
:2060A0003764020037640200F58502008986020037640200376402000000000000000000DF
:2060C0003764020037640200376402003764020037640200697D020037640200158702008C
:2060E0003764020037640200816A020000000000000000003764020000000000376402003F
:2061000000000000000000000000000000000000000000000000000000000000000000007F
:2061200000000000000000000000000000000000000000000000000000000000000000005F
:2061400000000000000000000000000000000000000000000000000000000000000000003F
:2061600000000000000000000000000000000000000000000000000000000000000000001F
:206180000000000000000000000000000000000000000000000000000000000000000000FF
:2061A0000000000000000000000000000000000000000000000000000000000000000000DF
:2061C0000000000000000000000000000000000000000000000000000000000000000000BF
:2061E00000000000D49CE85C000000000000000000000000000000000000000000000000EB
:20620000DFF80CD000F074FA00480047C5EF0300E0F3022000B583B002900091019244F25E
:20622000010071466A4604F08DFC03B000BD0000094B1EF0040F1CBFEFF309801847EFF30D
:2062400008800649064A884201D8904202D88D464FF0000018470000697B0200E0F302207C
:20626000E073022030B450E8012F93B2C48923448489A34228BF1B1B0489A34202BFBFF370
:206280002F8F002007E0C3EA020340E80134002CE9D14FF001000A6030BC704750E8012F8F
:2062A000C2EA024240E801210029F7D1704730B450E8022F1FFAA2F3C488A34202BFBFF35D
:2062C0002F8F00200DE0C48923448489A34228BF1B1BC2EA034340E80234002CE8D14FF0BC
:2062E00001000A6030BC704750E8022FC2EA224240E802210029F7D17047034653E8022F6F
:20630000D988B2EB324F4FF0000017BF92B241EA014142EA014104E05A68B2EB324F08BF3F
:20632000012043E80212002AE8D1704730B4044654E8000F0D4644E80053002BF8D11560AF
:2063400030BC704730B4044654E8000F40EA010544E80053002BF7D1156030BC704730B483
:20636000044654E8000F00EA010544E80053002BF7D1156030BC704730B4044654E8000F95
:2063800080EA010544E80053002BF7D1156030BC704730B4044654E8000F00EB010544E86D
:2063A0000053002BF7D1156030BC704730B4044654E8000FA0EB010544E80053002BF7D103
:2063C000156030BC704770B404464FF0000054E8006F0D68AE4207BF44E80023012044E886
:2063E00000630E60002B1CBF0020F0E770BC704730B4044654E8000F88422CBF451A054614
:2064000044E80053002BF5D1156030BC704700000020804723F16745012006C80648804749
:2064200006480047FEE7FEE7FEE7FEE7FEE7FEE7FEE7FEE7FEE7FEE771830200016202007A
:20644000004870477CB50400A0F14101192900D8203070472DE9FE43994615468846074668
:2064600001AC022942D3002D40D000200290A8F101004FF0FF36009022E000FB057201FB32
:20648000057011464A469047002805DC54F82600304444F8260013E060682A4600FB0571DC
:2064A00054F8040C00FB057007E00B7890F800C001F801CB00F8013B521E002AF5D176424D
:2064C00054F8040C61688842D7DC4B462A463846FFF7C0FF54F8040C4B46A8EB0001401C09
:2064E00000FB05702A46491EFFF7B4FFBDE8FE8310B5441A0346944209D28418114403E095
:2065000011F8013D04F8013D521EF9D210BD40EA0104A40703D009E010C9121F10C3042A51
:20652000FAD203E011F8014B03F8014B521EF9D210BDD2B201E000F8012B491EFBD2704794
:206540000022F6E710B513460A4604461946FFF7F0FF204610BD30B505462A460B4612F812
:20656000010B13F8014B08B1A042F8D01CB1002802D06D1CF1E7284630BDCAB2401E10F8F0
:20658000011F8A4202D00029F9D100207047421C10F8011B0029FBD1801A704710B50022C4
:2065A00000E0521C835C8C5CA34201D1002BF8D1D8B2E1B2401A10BD30B50446002003463F
:2065C00000E05B1C934203D2E05CCD5C401BF8D030BD034611F8012B00F8012B002AF9D1AF
:2065E0001846704730B505460020034600E05B1C934205D2EC5CC85C201A01D1002CF6D17F
:2066000030BD70B5064602F00DFB046805460A220021304600F033F82C6070BD2DE9F05F6F
:206620000546002092469B4688460646814640241BE0284641464746224600F07AF8534611
:206640005A46C01A914110D311461846224600F061F82D1A67EB01084F46224601200021C4
:2066600000F058F817EB00094E41201EA4F10104DFDC484631462A464346BDE8F09F2DE965
:20668000F04791460F4680460446002614F8015B2DB1FFF7D5FE0068405DC007F6D12B2D67
:2066A00002D02D2D18D0641E4A463946204600F050F827B13968A14201D1C7F800807105B4
:2066C0004FF002040BD54042002803DD02F0AAFA0460A007BDE8F08746F48066E4E700283B
:2066E000F8DA02F09FFA04606FF00040F2E70000064C074D06E0E06840F0010394E80700D6
:2067000098471034AC42F6D3FFF77EFD30D6040060D60400202A04DB203A00FA02F100205A
:2067200070479140C2F1200320FA03F3194390407047202A04DB203A21FA02F000217047A0
:2067400021FA02F3D040C2F1200291400843194670472DE9F05F82460078002715468B461A
:206760000AF10104B946302801D09DB113E014F8010B0127782803D0582801D045B10AE0CC
:206780000DB1102D07D10027102514F8010B02E0082500E00A250026B0460EE005FB080082
:2067A00005FB06F1012701EB10461FFA80F8B6F5803F00D3B94614F8010B294600F018F824
:2067C0000028EBDABBF1000F05D00FB1641E00E05446CBF80040B9F1000F06D002F022FAE0
:2067E00002210160C81EBDE8F09F48EA0640FAE73A2800D2303820F02002412A01D3A2F102
:206800003700884201D34FF0FF30704770B58C1810F8015B15F0070301D110F8013B2A11F1
:2068200006D110F8012B03E010F8016B01F8016B5B1EF9D12B0705D40023521E0DD401F8D6
:20684000013BFAE710F8013BCB1A921C03E013F8015B01F8015B521EF9D5A142D8D30020B9
:2068600070BD00002DE9F04383B000248DF807409DF834709DF8388028B1012907D9784856
:2068800003B0BDE8F083774803B0BDE8F08322B10C9C14B11BB17448F2E77448F0E7C7F1B7
:2068A0000F035FFA83F90F9B044616460D462BB9A8F104030C2B16D96D48E1E7012BECD13E
:2068C0000C9B0DF10702197B404600F09DFC0028F2D10D2FF0D10C9B1A7B9DF807309A429B
:2068E0007ED06448CCE718F0010FE5D1C7F10D03DBB2062BE0D8B9F1030F05D80B9A4FEA68
:20690000C90332FA03F3D7D1062FD5D9C9F10F039F42D1D19821204600F03EFC0022012320
:206920000320626222631022A3626363A36331462062A01800F02EFC1021204600F02CFC6E
:206940000A9BC4F8805084F8847084F8858004F1860513B1402384F8863094F98630B8F150
:20696000000F06D0A8F10208022298FBF2F84FEAC808C7F10E06F6B2334343EA080884F842
:2069800086803A460C9904F1870000F003FCB9F1030F49D8C9F1100028444A460BA900F01A
:2069A0008BF9294600221023204600F091F910220546214604F14C0000F0ECFBFDB1A5F56B
:2069C0007105042D18D801A353F825F087680200E36802007F680200F1690200F569020039
:2069E0000B9A4FEAC90332FA03F37FF465AF8DE7214845E7214843E74FF4750040E70A9B24
:206A0000B3F57F4F1DD29BB91A461344E36704F15D0084F85C603A460C9900F0BBFB012343
:206A200084F86B3000202BE704F192000422B5E702220AA904F16C0000F03EF902220A9B9C
:206A4000E3E7FE23FF2284F86C2084F86D3004220AA904F16E0000F02FF906220A9BD4E72D
:206A60000315F0000015F0000115F0000D15F0000C15F0001115F0000515F0000615F000B5
:206A80000B490C4B0C4A4FF0FF3008601B68BFF35B8F52E8001F42E800300028F9D1BFF3A9
:206AA0005B8F9942F3D1BFF35F8F044A1360704704BA025000BA0250DC73022008BA025094
:206AC00038B12DE9F0410D4651B122B92148BDE8F08121487047C76F2FB92048BDE8F0811B
:206AE0001F48BDE8F081BA42F0D2BF1AC7F11008904528BF904604466C30164638444246DA
:206B000000F048FBA6EB080205EB0801204600F0C1F9144B984212D009D9134B9842DFD0BA
:206B200014D3013398420DD11048BDE8F0810028CDD0B0F5710F05D10748BDE8F0810C489B
:206B4000BDE8F0814FF47500BDE8F0810948BDE8F08100BF0715F0000015F0000E15F00007
:206B60000515F0000100F1000300F1000615F0001115F0000315F000C0B138B5059C002CD1
:206B80004DD0002944D0049C002C4AD00446002B42D090F884009942C0F10F00C5B20AD036
:206BA00006D88818834206D23B4838BD3B48704798188142F8D31AB1204600F0BBF9F0B94C
:206BC0000223D4F88020236200232363626204F15C011022204600F0DDFAC5F11000204457
:206BE000294600F0D9FAD4F88030E3B91023049A04F14C01204600F06BF800283ED0A0F5B4
:206C0000710004282BD8DFE800F0312D2F050800002AB8D0224838BD52B3224838BD2248A4
:206C200038BD224838BD04F186052846102100F0B3FA284694F88520049900F0ABFA2A4603
:206C400029461023204600F043F80028D7D1294694F8852004F14C0000F09AFAB0B14FF428
:206C6000750038BD124838BD124838BD0B4838BD90F88400C0F10F00C5B2A1E794F88500E8
:206C8000049BC0F11001184400F086FA059A94F885301370002038BD0815F0000015F0003D
:206CA0000515F0000615F0000C15F0000D15F0001115F0000315F0003AB10A44013812F802
:206CC000013D00F8013F8A42F9D10020704700BF60B3F8B5446B24B9B3F5805F06D35848C6
:206CE000F8BD012C02D1B3F5803FF8D204460E4654484FF0FF311D46174600F051FAC0B991
:206D0000514A01231360226A072A16D94F4B1C68002CFCD14C4B4B481C6000F063FA002863
:206D2000DED04B4800F022FA2046F8BD4FF471007047484800F01AFAE2E7934013F08F0FAF
:206D4000E4D0636A012BE1D8636B012BDED8A36B012BDBD8204600F0D1FA0028D6D1A36A33
:206D6000012B5DD056D3022B54D0236A5A1E062A0FD8DFE802F00431040E0E0E0400364B83
:206D800022681A6062685A60A2689A60E268DA60236A23F00403032B31D0A36B012B49D0BA
:206DA0002E4A2F4B176020201D60636B012B2CD02C4A2D4B16601D6000F0A4F9234A136861
:206DC000002BFCD1236A013B062B12D8DFE803F01406141111111400244BD1E7234A244BA5
:206DE000126822601A6862605A68A26008331B68E3600123236389E7174A1E4BF0E7636B05
:206E0000012B01D01020D3E740201B4A1B4B16601D60D1E71A491B4A0B6001231360A4E760
:206E2000194B22691A6062695A60A2699A60E269DA609AE7154A164B176080201D60B4E76A
:206E40000500F100E0F3022010B8025010B90250A8D5040090D5040040B4025030BD0250A3
:206E600034BD025030BC025034BC025060B4025064B4025044B4025028BC02502CBC0250C5
:206E800038BA025078B4025000B4025028BD02502CBD02502DE9F84F00F1860804468946C3
:206EA00040461021154600F077F9002203232362626204F16C0120461023FFF709FF04F1E1
:206EC0004C0A064621465046102200F063F926B905F00F07ED1B17D117B93046BDE8F88F49
:206EE0003A464946404600F055F94146102300222046FFF7EDFE214606461022504600F031
:206F000049F93046BDE8F88F324649462B462046FFF7DEFE102283462146504600F03AF9C2
:206F2000BBF1000F03D1A944002FD6D0D8E75E46D3E700BF2DE9F04732F00F080F4699466A
:206F4000044602F00F0605D1002E42D135462846BDE8F087D0F88050CDB9032300F14C0A39
:206F60000563456203625146102200F013F92A46434639462046FFF7ABFE05460028E6D131
:206F800050461022214600F005F9D4F8805065620023022204F15C0A2262236351461022FC
:206FA000204600F0F7F843464A4639462046FFF78FFE05460028CAD150461022214600F0DE
:206FC000E9F8D4F88030012B75D04744C144002EBCD004F186084046102100F0DDF8324622
:206FE0003946404600F0D6F8D4F88050D5B9032304F14C072563656223623946102220464B
:2070000000F0C8F82A46102341462046FFF760FE054600289BD138461022214600F0BAF844
:20702000D4F8805065620023022204F15C072262236339461022204600F0ACF810234246DE
:2070400041462046FFF744FE054600287FF47FAF38461022214600F09DF8D4F88030012BB3
:2070600007D048463246414600F094F82846BDE8F087032304F14C0723621022394620469C
:207080002563656200F086F8C6F1100108EB060000F082F82A46414610232046FFF718FE6C
:2070A000214682461022384600F074F8BAF1000FD7D055464BE7032304F14C0A25636562A7
:2070C000236251461022204600F064F82A46494643462046FFF7FCFD102205462146504659
:2070E00000F058F8002D3FF470AF30E7014B1860704700BF08BA0250014B1860704700BF32
:2071000004BA025010B5044682B0C0B1124A134BC14311601B680193019B18420AD1104A3C
:2071200020BFBFF35B8F1368BFF35B8F0193019B1C42F5D00B4B1C60019802B010BD0A482E
:2071400000F014F8044A054B4FF0FF3111601B680193019BE3E700BF04BA025000BA02505D
:20716000DC73022008BA0250C0D50400BFF34F8F0549064BCA6802F4E0621343CB60BFF325
:207180004F8F00BFFDE700BF00ED00E00400FA05FFF712BAFFF7ACB90A460021FFF7D2B9D0
:2071A00010B50446B8B1BFF35B8F2368BFF35B8F012BF8D00122BFF35B8F54E8003F44E83A
:2071C00000210029F9D1BFF35B8F012BF3D1BFF35F8F002010BD0248FFF7C8FFE3E700BFF2
:2071E000F0D5040010B5044620B1BFF35F8F0020206010BD0348FFF7B9FFBFF35F8F002020
:20720000206010BD10D6040062B3032903D9072939D9384870471028FBD801A353F820F097
:20722000817202001372020013720200137202007972020013720200137202001372020042
:20724000717202001372020013720200137202001372020013720200137202001372020098
:20726000697202002448704703231370002070470223137000207047012313700020704791
:207280000020107070471028C3D801A353F820F0ED720200137202001372020013720200CF
:2072A000E5720200137202001372020013720200DD720200137202001372020013720200FA
:2072C00013720200137202001372020013720200D572020007231370002070470623137019
:2072E00000207047052313700020704704231370002070470C15F0000D15F00038B51E4B3B
:207300001E49012205461A600B68002BFCD11C4B1A68002AFCD11B4B1A68002AFCD11A4B8F
:207320001A68002AFCD1194B1C68002CFCD14FF0FF30FFF7DBFE2B6A23F00403032B0CBF0E
:2073400080204020FFF7D8FE114B1C602B6A23F00402032A18BF6C6A0E4A9B0003F01C03FC
:2073600004F00104234313602B6A072B02D10A4B01221A60002038BD00B9025070B4025019
:2073800020BD025020BC025038BD025038BC0250BCB40250C0B402507CB4025080383728E2
:2073A0006DD2DFE800F01C1E20222426282A2C2E30323436383A3C3E40424446484A4C4E75
:2073C00050525456585A5C5E60626466686A6C77767574737271706F6C6C6C6E6D002EA033
:2073E000704733A0704739A070473EA0704744A0704749A0704750A0704754A0704759A0A1
:2074000070475FA0704764A0704769A070476EA0704774A0704779A070477FA0704784A02A
:20742000704788A070478EA0704793A0704799A070479EA07047A4A07047A8A07047AEA0BA
:207440007047B3A07047B9A07047BDA07047C3A07047C9A07047CEA07047D4A07047D9A044
:207460007047DEA07047E2A07047E7A07047ECA07047F1A07047F6A07047FBA0704715E288
:2074800012E20FE20CE209E206E203E200E2FDE1FAE1F7E1F4E1000049445F5345545F449E
:2074A00049474954414C5F4D415050494E47530049445F434C4541525F4449474954414CA4
:2074C0005F4D415050494E475300000049445F4745545F4449474954414C5F4D41505049EF
:2074E0004E47530049445F4745545F415454524942555445535F56414C5545530000000043
:2075000049445F4745545F4154545249425554455F4C4142454C000049445F5345545F4452
:20752000454641554C545F4449474954414C5F4D415050494E47530049445F464143544F16
:2075400052595F52455345540000000049445F5345545F53455454494E47535F56414C555F
:207560004553000049445F434C4541525F53455454494E47535F56414C5545530000000021
:2075800049445F4745545F53455454494E47535F56414C554553000049445F4745545F53A2
:2075A000455454494E475F4C4142454C0000000049445F4745545F53455454494E47535F46
:2075C0004D4158530000000049445F4745545F53455454494E47535F44454641554C54531F
:2075E0000000000049445F5345545F434F4E54524F4C4C45525F4D4F4445000049445F4C94
:207600004F41445F44454641554C545F53455454494E47530000000049445F5452494747F9
:2076200045525F4841505449435F50554C53450049445F5245424F4F545F494E544F5F49BB
:207640005350000049445F4649524D574152455F5550444154455F5354415254000000002F
:2076600049445F4649524D574152455F5550444154455F444154410049445F4649524D57B5
:207680004152455F5550444154455F434F4D504C4554450049445F4649524D574152455F90
:2076A0005550444154455F41434B000049445F4649524D574152455F5550444154455F52BD
:2076C00045424F4F5400000049445F5345545F50524E475F454E54524F50590049445F52F5
:2076E0004144494F5F46575F5550444154455F53544152540000000049445F524144494F07
:207700005F46575F5550444154455F444154410049445F524144494F5F46575F55504441F2
:2077200054455F434F4D504C4554450049445F524144494F5F454D435F54455354000000CA
:2077400049445F524144494F5F454E41424C455F544553545F4D4F444500000049445F5267
:207760004144494F5F44495341424C455F544553545F4D4F4445000049445F524144494F1B
:207780005F544553545F454E41424C455F43570049445F524144494F5F544553545F444965
:2077A0005341424C455F43570000000049445F5455524E5F4F46465F434F4E54524F4C4C2E
:2077C0004552000049445F5345545F424F4152445F5245564953494F4E00000049445F4772
:2077E00045545F4445564943455F494E464F000049445F444F4E474C455F5245534552567B
:2078000045445F300000000049445F444F4E474C455F52455345525645445F31000000005C
:2078200049445F444F4E474C455F52455345525645445F320000000049445F444F4E474CF3
:20784000455F52455345525645445F330000000049445F444F4E474C455F524553455256B7
:2078600045445F340000000049445F43414C4942524154455F545241434B5041445300007D
:207880000BA0704710A0704716A070471EA0704724A0704728A070472DA0704732A0704736
:2078A00037A070473CA0704740A0704744A0704749445F5345545F53455249414C5F4E557C
:2078C0004D4245520000000049445F4745545F545241434B5041445F43414C49425241546C
:2078E000494F4E0049445F4745545F545241434B5041445F464143544F52595F43414C493E
:2079000042524154494F4E0049445F4745545F545241434B5041445F5241575F4441544121
:207920000000000049445F454E41424C455F50414952494E4700000049445F4745545F53CD
:207940005452494E475F4154545249425554450049445F524144494F5F45524153455F52B5
:2079600045434F524453000049445F524144494F5F57524954455F5245434F5244000000E4
:2079800049445F5345545F444F4E474C455F53455454494E4700000049445F524144494F1F
:2079A0005F5345545F4D4F444500000049445F524144494F5F4745545F4D4F4445000000DA
:2079C000756E6B6E6F776E002DE9F04F00258BB0DFF88C81A94606954FF4807601242F46A1
:2079E000079530461BF0F2F838B1D8F80403204203D030461BF0E0F82543361D64007F1C78
:207A0000B6B2082FEDD34FF4BE7420461BF0DEF848B120461BF0D0F845F0004506AA0221CC
:207A200000201BF099F84F4E15F0FF0F15D0012700242F420DD008EB8401D1F81005D1F83C
:207A40001015C0F3052056F82420C1F3014102B190477F00641C082CEBD3002D46DA0020B9
:207A6000CDF82090411E0DF1180A04AC0DF1040BCDF8249044F82010401C0228FAD396F88F
:207A80005470002578B227F0C008401C2ED004A9404618F0A9FA002828D04FEA971940462D
:207AA0000EF0F6FB56F820701FB1B9F1030F03D006E0B9F1030F19D108A9404618F09CFA39
:207AC00002A8CDF808801AF0FDFF029900EB8100D0F8000706A9C0F301400290404618F010
:207AE00083FA0028029804D0022804D00BB0BDE8F08F0328FAD1B9F1030F07D10298022848
:207B000028D0022140461AF091FF012517B149464046B847002DE9D001AA022100201BF049
:207B20001BF800205246594652F8207051F82030BB4211D0002008AB51F8207042F8207014
:207B400053F8207044F82070401C0228F4D3002D95D1CBE70321D5E7401C0228E4D3C5E723
:207B60000060004054D201201CB581461BF0E6FB1BF016FA0028FBD130485FEA090507684D
:207B80002F4830494FF00106A0EB01004FEAD00006EB004417D020462BA1AA691BF01AFB99
:207BA000D5E90201CDE90001D5E9002320462CA11BF028FBE8690090D5E90423204636A108
:207BC0001BF017FB03E020463DA11BF0FFFA1B48001D0068800703D5204646491BF0F6FA26
:207BE000DFF81481002500BF06FA05F0384206D058F825201AB1204640A11BF0EBFA6D1CD0
:207C00001A2DF1D3380606D50C480C30026820463DA11BF0DFFA380406D50848103002680D
:207C2000204641A11BF0D6FA0448C8300068C00700D000BE484600F085F8000028ED00E030
:207C4000D0D70400B8D7040048415244204641554C54206174203078253038580000000089
:207C6000202052303A2020307825303858202052313A2020307825303858202052323A2053
:207C800020307825303858202052333A20203078253038580000000020205231323A2030EC
:207CA000782530385820204C523A202030782530385820205053523A203078253038580066
:207CC000537461636B2076696F6C6174696F6E3A20737461636B20706F696E746572206F99
:207CE00075747369646520737461636B20617265612E0000F4B80400A0B20120436175732A
:207D0000653A2025732E00004D656D4D616E616765204661756C7420416464726573733A3A
:207D20002030782530385800427573204661756C7420416464726573733A203078253038DB
:207D400058000000BFF34F8F05480168054A01F4E06111430160BFF34F8F00BFFDE7000018
:207D60000CED00E00400FA052DE9FC413F4E4FF48A75294630461AF053FF3D4C70B12946AB
:207D800030461AF052FF607940F008016171880704D5C80602D541F0200060714FF48275C5
:207DA000294630461AF03CFF70B1294630461AF03CFF607940F004016171C80704D0C806FD
:207DC00002D541F0200060714FF48477394630461AF026FF0025B0B1394630461AF025FF9F
:207DE0000420C6F80803C6F80055214800212268103090471E480021226808309047012017
:207E00002071BDE8FC81607981074FEAC07103D519B1010705D4F4E709B9010703D481075D
:207E2000EFD44107EDD520F00C00607181060BD520F0200040F010006071226802B0012182
:207E4000BDE8F04100201047D4E90412CDE90012D4E90212A560E560C4E9041240F010001C
:207E600060712268012168469047CAE700500240B0D2012000F01F0201219140400980004D
:207E800000F1E020C0F88012704700F01F02012191404009800000F1E020C0F88012704731
:207EA00000F01F02012191404009800000F1E020C0F88012704700F01F02012191404009B6
:207EC000800000F1E020C0F88011704700F01F02012191404009800000F1E020C0F880112A
:207EE000704700F01F02012191404009800000F1E020C0F88011704700F01F020121914009
:207F00004009800000F1E020C0F80011704700F01F02012191404009800000F1E020C0F8B1
:207F20000011704700F01F02012191404009800000F1E020C0F80011704700F01F02012108
:207F400091404009800000F1E020C0F8001270474907090E002806DA00F00F0000F1E020B6
:207F600080F8141D704700F1E02080F8001470474907090E002806DA00F00F0000F1E0200E
:207F800080F8141D704700F1E02080F8001470474907090E002806DA00F00F0000F1E020EE
:207FA00080F8141D704700F1E02080F800147047BFF34F8F05480168054A01F4E06111430E
:207FC0000160BFF34F8F00BFFDE700000CED00E00400FA0510B51DF0F7FDBDE810401DF069
:207FE000BFB80000064882B00021016000680090044800680449C0B2496802B008470000EB
:2080000000D1004008D5004044B3012007480021C0F84011C0F84411C0F84811C0F84C116E
:20802000C0F80011C0F8041120F032BD0010014004480178532902D1C079522801D000F0D2
:2080400049BC704700EC0320F8B5064600208DF8000014460D46684604F0AAFF22462946E8
:20806000304600F007F804469DF8000004F0EEFF2046F8BD2DE9F0471B4D074616462878C2
:208080000C4608B900F026FC07EB470005EBC007A046D7E91595002448374D4511D9B8683C
:2080A000441BB44200D334467868224641194046FEF71EFAB868361B2544A044A84200D170
:2080C0000025A9EB0500B04200D206463EB17868324641194046FEF70BFA3444354404B10B
:2080E0003D612046BDE8F08700EC0320F8B50D4B0646144618780D4608B900F0EBFB00200C
:208100008DF80000684604F053FF22462946304600F00AF804469DF8000004F097FF2046D8
:20812000F8BD000000EC032070B50E46144900EB400001EBC0051446E86A183520B10128D6
:208140000FD0022805D113E0284600F0F7FBA04201D2002411E022463146284600F028FDD1
:208160000BE0284600F0EAFBA042F4D20446F2E73146284600F0EFFC0446204670BD000069
:2081800000EC03200FB408B504A900916A46039900F003F801B05DF814FB2DE9F04198B037
:2081A000064607A8029040200025CDE90305CDE9055690460C4614F8011B002973D02529D4
:2081C00008D002A800F0A8FC05980028F3DA18B0BDE8F081002001212278232A1ED02B2AAD
:2081E00019D02D2A02D0302A08D102E040F0010001E040F00200641C0029EDD100222178F2
:20820000A1F130030A2B0CD202EB820201EB4202303A641CF3E740F00400ECE740F00800E2
:20822000E9E70023CFB22E2F0BD114F8011FA1F130070A2F05D203EB830301EB4303303B7B
:20824000F3E76C290DD068290BD0702954D00BDC252916D0582931D063290CD0642913D133
:2082600014E014F8011FECE7732934D075291BD0782909D122E0D8F80000011DC8F80010A7
:20828000017802A800F048FC641C9DE7D8F800100F1DC8F800700968CDE900200A2202A82A
:2082A00000F06CFBF0E733E0D8F800100F1DC8F800700968CDE900200A2208E0D8F8001006
:2082C0000F1DC8F800700968CDE90020102202A800F0B8FBD8E7D8F80000011DC8F80010FF
:2082E000076817F8011B0029CED002A800F014FC05980028F5DAC7E7D8F80000011DC8F883
:20830000001001680820CDE9000503461022DEE7059800287FF75BAF049820B1024607A917
:208320003046FFF7E3FEDDE90410084405904EE77CB50C4C2078002812D00120FFF7C6FDFB
:20834000A5680020A0600120FFF7E1FDA16A002906D0680704D502208DF800006846884785
:208360007CBD000060B001201CF028BA20F0DEBA30B56F48016841F0807101606D48016857
:2083800041F4803101606C4940F201300860000700228300D0F83011C3F80C21C3F810218D
:2083A000644B243B1A60654B1B68654C2360634B1B1D1B68241D2360604B08331B68241DF7
:2083C00023605E4B0C331B68241D23605B4B10331B68241D2360594B14331B68241D236089
:2083E000564B18331B68564C20342360534B1C331B68241D2360514B20331B68241D23602B
:208400004E4B24331B68241D23604C4B28331B68241D2360494B2C331B68241D2360474B20
:2084200030331B68464C40342360444B34331B68241D2360414B38331B68241D23603F4BC8
:208440003C331B68241D23603C4B40331B68241D23600124082902D1D0F8343113B10829DA
:2084600004D006E0384B3749196005E0D0F8343113B1082904D006E0344BFB21196005E00C
:20848000D0F8343113B1082908D00EE090F858322F48016863F30301016002E0D0F8343138
:2084A0001BB92C494FF4007008602B480168C90702D06FF0010101601D487438016841F469
:2084C00070010160BFF34F8FBFF36F8F4FF01021D1F80002002803DBD1F80402002822DA56
:2084E0001E4B1C601E480468002CFCD01224C1F800420568002DFCD0C1F8044201680029A5
:20850000FCD01A6001680029FCD0BFF34F8F0848F0380168134A01F4E06111430160BFF34C
:208520004F8F00BFFDE711490F48086030BD0000FCED00E05C050040000A005004040010D8
:2085400020C50040488103008C56004018F50040E40E0040409602400004004004E5014003
:2085600000E401400400FA050090D00368B501202DE9F047104E042700244FF4A0784FF49A
:20858000803900BF08EB840509FA04F0715961B1D6F80413014208D0294630461CF0F6FA33
:2085A0000648D0E9002128469047641CE4B2BC42E8D3BDE8F087000000900040C8D20120D8
:2085C0000A48D0F8441101290ED1D0F8041389030AD50021C0F844110121C1600448C279E1
:2085E0000AB114F0DDBA01727047000000A00040DCB40120194810B5D0F8401101292CD104
:208600000021C0F84011D0F84001154817F045FB02460A280DD213480078400609D51248D9
:208620001249401AC008032101EB004010A11AF0D1FD15F0DFFE50B109480121001F17F068
:208640001DFB032803D10F4940F2DC50086001F0FBFBBDE8104002F02BBE10BD00A0014080
:20866000ECB00120F0B0012020D80400B8D704006D61696E206C6F6F702072756E733A202C
:208680002564000040A5014030B51E4CD4F84001002510B302F0CAF91B49C97A19B15F283A
:2086A00011D900200DE0194A0021126893B2120C0F2B02D9022A00D201215F2800D311B111
:2086C00001201FF097F9124942F21070086001206060E060C4F840512060D4F8440168B14B
:2086E00002F0A4F95F2801D9002000E001201FF081F90748001D0560C4F84451BDE83040A9
:2087000002F08CB900B00140CCB101207415004040B501402DE9F05F5448D0F80453002450
:208720002E464FF0010913E096FAA6F0B0FA80F7B80000F5807080461CF01AFC28B140465E
:208740001CF01EFC09FA07F0044309FA07F08643002EE9D119F092F8002869D0444AD0783D
:20876000F0BBA00264D5434940F2A978C1F80080081D036813F0FF0C02D0036803EA0C0C7B
:2087800040F2AA7AC1F800A0036813F0FF0301D00668334040F2AB7BC1F800B0066816F0D3
:2087A000FF0601D007683E4040F2AC770F60076817EA0C0709D0D2F810C04CEA070CC2F839
:2087C00010C0C1F800800760076840F2AD770F6007681F4009D0136943EA0743136100E007
:2087E00026E0C1F800A00760036840F2AE730B60036833400BD0DE0701D044F40004DE06FB
:2088000001D544F00104C1F800B003600068106930F0011102D005F080710C4310F0011F43
:2088200006D0690504D520F0011044F480641061C4F3C05624F400044F46DFF83C8009E073
:2088400094FAA4F0B0FA80F558F82500804707FA05F08443002CF3D120F0B2FC002E03D02F
:20886000BDE8F05F12F002BEBDE8F09F0070024010B3012000780240B8AB040038B50A4818
:20888000D0F804034FF0000410F0010F0AD072B606A308A209A10020FFF774FC0C48046079
:2088A0000068009038BD0000000001401B5B306D000000001B5B343B34316D000D0A0D0A92
:2088C00025732121212057445425730D0A0D0A000001014010B5124C02202061606111A04E
:2088E000A06104F17800E06140F6487020620020A06260620BA1A164E06204F57C61E16467
:208900004021A065C4E91410E06509A1E01DFDF760FE08A12046FDF75CFE2020A07110BD67
:2089200000EC03205465726D696E616C000000005254540053454747455200000269C168A1
:208940008A4203D88068401A104400E0501A401E70470000C11700EBD161074B4A1153F88E
:20896000222021F01F01411A01208840024201D0012070470020704700E100E02DE9FC5F4A
:208980000E008146DDE90C47C6F1000098469346824600D40846012503E000BF90FBFBF053
:2089A0006D1C5845FADAA84500D9454624B1002E01DB780700D5641EB80702D5B8F1000F69
:2089C0000FD0F8070DD164B1A5420AD220214846641E00F0A1F8D9F80C000028F3DABDE8B2
:2089E000FC9FD9F80C000028F9DB002E02DA56462D2102E0780707D52B21484600F08CF884
:208A0000D9F80C000028EADB07F0030002280FD1B8F1000F0CD15CB1A54209D23021484645
:208A2000641E00F079F8D9F80C000028F3DAD6E7CDE9004743465A463146484600F002F8AF
:208A4000CDE700002DE9F84F8246DDE90A4B0126984691460D460846374602E0B0FBF9F0B2
:208A60007F1C4845FAD2B84500D947465FEACB7017D1B4B15FEA8B7002D5B8F1000F02D029
:208A8000202000900BE03020FBE75046641E009900F042F8DAF80C00002838DB0CB1A7424F
:208AA000F3D3DAF80C00002831DB00BFB8F1010F02D9A8F1010803E0B5FBF6F0484502D30E
:208AC00006FB09F6F2E7DFF84C8000BFB5FBF6F000FB165518F80010504600F01DF8DAF8D2
:208AE0000C00002803DBB6FBF9F6002EEED15FEACB700CD0002C0AD0A74208D220215046D7
:208B0000641E00F009F8DAF80C000028F2DABDE8F88F000088AE040010B50446D4E90130AD
:208B2000421C934205D323681954A260E068401CE060D4E90102824209D121682069FFF7E6
:208B4000D5FAA168884203D04FF0FF30E06010BD0020A06010BD2DE9F047C4681746894693
:208B600006464FF000083069A04201D9051B02E0B168201A0D1AB0686D1E001BA84200D811
:208B80000546BD4200D33D4670682A4620444946FDF7AEFCB0687F1B2C44A844A944A0427F
:208BA00000D10024F460002FDDD14046BDE8F0872DE9F04104468846D4E90207C51BE1689F
:208BC000606816460844B54206D94146FDF790FCB819E060BDE8F0812A464146FDF788FCB2
:208BE000761B08EB050132466068FDF781FCE660F0E700000FB41CB50246002007AC002945
:208C00000BD0491ECDE90021054B6A462146069800F02EF8009A002111701CBC5DF814FBA8
:208C2000D3900200004870476CB5012002E008C8121F08C1002AFAD170477047002001E07E
:208C400001C1121F002AFBD1704700000121202803DA81400548014003E0402802DA20385F
:208C6000814009B10120704700207047FC06FFBD2DE9FF4F8DB00F460546002606E0252872
:208C80000BD0DDE90F1290476D1C761C28780028F5D111B03046BDE8F08F0024A246A14644
:208CA0000122EC4900E0044315F8013F203B02FA03F00842F7D128782A2810D06FF02F022A
:208CC0002878A0F13001092914D80AEB8A0102EB410144F0020400EB010A6D1CF0E701CF05
:208CE0005FEA000A03D544F40054CAF1000A44F002046D1C28782E2817D115F8010F44F006
:208D000004042A280ED06FF02F022878A0F1300109290AD809EB890102EB410100EB010973
:208D20006D1CF2E757F8049B6D1C28786C280FD006DC4C2817D068280DD06A2814D104E042
:208D4000742810D07A280FD10DE044F400140AE044F4801401E044F440146978814202D142
:208D600004F580146D1C6D1C2A786E2A1FD00CDC632A31D004DC002A8BD0582A11D1A3E069
:208D8000642A68D0692A0CD165E0732A2ED004DC6F2A73D0702A04D19BE0752A6FD0782A97
:208DA0006ED01046DDE90F129047761C50E1C4F30250022806D0032809D0042801CF09D0BC
:208DC000066045E101CFF117C0E9006140E101CF06803DE106703BE117F8040B8DF800005B
:208DE00000208DF80100EB46012003E057F804BB4FF0FF3061074FF0000102D40DE008F1B8
:208E00000101884649450FDA8045F8DB1BF808100029F4D108E008F1010188468142FADB11
:208E20001BF808100029F6D1DDE90F23AAEB08008146214600F036F9304400EB080604E0E4
:208E4000DDE90F121BF8010B9047B8F10108F7D221464846F7E00A21C4F302534FF0000B6D
:208E60000891022B04D001CFC117032B09D00AE0FF1D27F00707F7E8020108E032E01FE0A3
:208E800020E000B2C117042B01D140B2C117031E71F1000307DA4FF0000CD0EB0C006CEBAD
:208EA00001012D2302E0230504D52B238DF82430012303E0E30701D02023F7E7984658E05D
:208EC0000A2110E010210EE010204FF0000B08900CE010214FF0000B44F004044FF0080953
:208EE000089103E008214FF0000B0891C4F30253022B04D001CF0021032B06D006E0FF1DE6
:208F000027F00707F7E8020103E080B2042B00D1C0B24FF0000823072BD5702A07D0DDF80C
:208F200020C08CF0100C5CEA0B0C05D00EE040238DF82430012308E050EA010306D03023EA
:208F40008DF824308DF8252002239846DDF820C08CF0080C5CEA0B0C0BD150EA010301D1DD
:208F6000630706D530238DF824304FF00108A9F10109582A04D038A20B9208AA0A920BE08E
:208F80003AA2F9E75B46089AFDF748FB0B9B9B5C0A9A521E0A92137050EA0102F2D10A9829
:208FA000ADEB000000F1200B600702D524F4803401E04FF00109D94502DDA9EB0B0000E04D
:208FC000002000EB0B0141440890AAEB010AE00306D4DDE90F232146504600F063F8064476
:208FE0004FF0000908E009A911F80900DDE90F12904709F10109761CC145F4DBE0030CD590
:20900000DDE90F232146504600F04CF8064404E0DDE90F1230209047761C0899481E0890BA
:209020000029F5DC08E00A980A990078491C0A91DDE90F129047761CBBF10001ABF1010BEC
:20904000F1DC21465046DDE90F2300F019F806446D1C1BE6092801003031323334353637AB
:20906000383961626364656600000000303132333435363738394142434445460000000088
:209080002DE9F041044600251E461746880404D405E039462020B0476D1C641EF9D5284613
:2090A000BDE8F0812DE9F041044600251E469046C80301D5302700E02027880404D505E041
:2090C00041463846B0476D1C641EF9D52846BDE8F0814A68002A06D00A68531C0B601070B9
:2090E0004868401E486070471CB510480F4C90F830002834C000207000206070A0702046B5
:2091000013F06AFFE0700420ADF8040000220094114668461EF0C8FA002805D0044A4FF4AD
:209120002B710020FDF776F81CBD0000DCB40120E8CC0400800701D00020704701207047C8
:2091400040680068401E084201D10120704700207047C3688B4206D811440069491E814218
:2091600001D801207047002070471CB504464FF08050D0F8A810D0F8A40089B241F4404160
:2091800000F010F8CDE9000144B100206946C0F104028A5C2254401C0428F8DDDDE9000125
:2091A0001CBD000082B24FF40C73000C5A4340EA0140064B0649120C084033F81230010C4C
:2091C0000004C01841F100017047000016A10400FFFFCF0010B5082106481DF0CAFA002014
:2091E00000F092F9012000F08FF903490020887110BD00005AB7012028B001200549064B5F
:20920000086800F0010252421A4082EA500008607047000058B00120010000D010B14FF028
:209220008050006901EBC10202EB01110844014908447047E78F0D00064951F8F82F521CFE
:209240000A6010B14FF08050006900F559201AF0F7BC000010BB01202DE9F04101242507BC
:209260000746192609E02146384600F0BBF810B12046BDE8F081641CE4B22869B0FBF6F07C
:20928000A042F0D20020F4E770B506464FF0805000691921B0FBF1F00B4DC4B221462878AB
:2092A000FFF7BCFF0178F02905D108223146401CFDF782F928B1641E14F0FF04EED10020E8
:2092C00070BD204670BD000049B001202DE9F047254850F8F41F491C0160244D287880F058
:2092E0000100FFF7B9FF012804D0287880F00100FFF7A2FF4FF001094C464FF080561927EA
:20930000A84621E0214698F80000FFF787FF05460078FF281DD0F02814D1681CFFF7B4FFEA
:20932000A0420FD14946481C00F0FF0998F800002A4680F0010000F0C5F83069B0FBF7F136
:20934000494506D0641CE4B23069B0FBF7F0A042D8D2444698F80000FFF76EFF207880F057
:2093600001002070BDE8F08710BB012049B0012038B5044600208DF80000684603F018FEA7
:209380002046FFF781FF01000BD009480078FFF745FF04469DF8000003F058FE04F10900EC
:2093A00038BD9DF8000003F051FE002038BD000049B0012070B50125094C002628462570E9
:2093C0006670294600F00EF8002807D030462670012100F007F8002800D0657070BD00003C
:2093E00049B0012010B51924FFF718FF10F8011BFF2901D0002010BD641E14F0FF04F5D1EB
:20940000012010BD38B500248DF80040684603F0CFFD0020FFF720FF012802D00020FFF7D5
:209420000BFF0120FFF718FF012802D00120FFF703FF04480121047041709DF8000003F0C5
:2094400005FE38BD49B001202DE9F04188B00746002688468DF80060684603F0A9FD1748AF
:2094600050F8FC1F491C0160154D2878FFF7F4FE04006E7006D1FFF729FF2878FFF7ECFE82
:20948000040013D0F0208DF804003868CDF805007868CDF80900102241460DF10D00FDF77C
:2094A00027F801AA2146287800F00CF89DF8000003F0CCFD08B0BDE8F081000010BB0120DC
:2094C00049B00120F0B589B01446FFF7A7FE00F0030202F11C018D0800214E1E4FEA0D032F
:2094E00043F82160491C0829FAD300218F18665C491CDE551929F9D320F003002A4619463B
:209500001AF0CEFB09B0F0BD38B5044600208DF80000684603F04CFD204600F045FF002290
:209520000521204600F00EF801220A21204600F009F8204600F020F89DF8000003F086FD8B
:2095400038BD00002DE9F04104460948154600EB84060F4616F8150020B10BF047FE0020BB
:2095600006F815000348015DB9430155BDE8F081C8B701203AB00120F8B5064600258DF879
:209580000050684603F014FD0948002400EB06173E19707B10B10BF029FE7573641CE4B229
:2095A000022CF5D39DF8000003F050FDF8BD000098B7012070B50C46D0F80110027909BA2D
:2095C00021F0FF011143244A00784140116001D10120106000250B26FFF710FEB0FBF6F1FF
:2095E00006FB110005EB450101EBC5010844801C6055032001F095F86D1CEDB2072DEBD319
:2096000001202118225C11F8011C511AC9B2052903D2C1F1050111442154401CC0B20728E4
:20962000EFD3A079502801D95020A0715FF00605FFF7E4FD691CB0FBF1F201FB1200C0B2B8
:20964000615D225C62552154032001F06AF86D1EEDB2012DECD870BD58B001202DE9F05F55
:209660005348524C4078800743D52078002840D05048DFF83C814FF0010B0378A8F11208E5
:20968000A4F184093BB3A4F1AA0101F1180236310546012B2FD0022B2BD198F806000028AA
:2096A00027D0484615F072FC15F04EFC002820D0687811280BD3AA46ED1C20780BF052FD79
:2096C000471C05223C492846FCF776FFD0B1BDE8F05FFFF77FBD417808290AD3C01CFFF765
:2096E00047FE010005D010224846FCF701FF88F806B0BDE8F09F98F804000028F9D02B483A
:20970000AA38CFE7387A00F0070606EB460000EB06112648AA3800EB410438682061D5F85B
:209720000D006061FFF756FD9AF8000001283AD0494620461022FCF7DBFE3046FFF7E4FE0C
:20974000304600F05FFF84F822B02920A084174855F8051F363800EB06105F460160696874
:2097600041600021816001730121304612F025FF88F8087088F8077098F80B1041F0040144
:2097800088F80B100D4800784007B2D53246BDE8F05F0B480B49401AC008032101EB00400E
:2097A00009A119F017BD0149AA39C2E7CEB701203AB0012071BE01203DB00120F0B001207C
:2097C00020D80400B8D704002A2A2A20434F4E4E4543544544206F6E20706970653A20257F
:2097E000640000002DE9F0411A490546487800280ED0CB78184A012B02EB05140AD0042B6A
:2098000006D1082804D3D1F80700A06008792073BDE8F0811128FBD1CF1C05EB450000EB60
:2098200005110D481022743800EB4106791C3046FCF75EFE2846FFF767FE284600F0E2FE4C
:209840002046791CFFF700FE16F8220F40F004003070DDE771BE012098B701202DE9F04735
:20986000064600EB460000EB0611234896B000EB41016D4691F82200020606D520F08000BA
:2098800081F8220016B0BDE8F08754212846FCF757FE19480024743000EB061909EB0408ED
:2098A00098F80D709FB138460BF05CFC90F800A038460BF057FC411C52462846FCF718FE1A
:2098C000554438460BF092FC002188F80D10641CE4B2022CE2D3094C2846E11C6278FCF7A4
:2098E00007FE607869462844401AC2B2B61EF0B201F094FAC6E7000024B7012071BE0120B4
:2099000000200A4A022100BF01EB410303EB011302EB430393F82230DB0701D0401CC0B22E
:20992000491CC9B20329EFD37047000024B70120064A0123137050704FF47A70414342F606
:20994000E060B1FBF0F010827047000028B0012010B500F003FA02490020487310BD000054
:2099600028B001201FB56846FFF7FFFB9DF800000C4C20F007008DF80000009820609DF846
:209980000400207102A96846FFF714FE0298C4F80500BDF80C00A4F809009DF80E00E0721B
:2099A0001FBD00003DB00120F0B5364836490326401AC50887B006EB054034A119F006FC7E
:2099C000364C217B012031B100EB054034A119F0FDFB07B0F0BD617B0029FAD1607318F051
:2099E0007BFB12F069FD21213848FCF7A9FD182237496846FCF77CFD3648022700250190FD
:209A00008DF811708DF808508DF81260684618F0A1FBA573FFF7A6FF72212F48FCF790FDDD
:209A200010222E492C48FCF763FD6772FFF7C2FC1A48123005808570FF2012F0B5FD2449CB
:209A40000020083912F0CCFD2549012012F0C8FD234C207840F00201022012F0C5FD2078CC
:209A600040F00301032012F0BFFD207840F00401042012F0B9FD207840F00501052012F033
:209A8000B3FDA6E720D80400B8D704006169725F686F73745F696E697400000028B0012095
:209AA0006169725F686F73745F696E69742063616C6C6564206F6E2072756E6E696E672077
:209AC00061697220686F73740000000050BE0120009A0400A120040024B70120389A040008
:209AE0003DB0012000EB400101EB0010034901EB400090F86E0000F00100704724B701201E
:209B00000448C17919B10021C1710120704700207047000028B0012010B5194A002386B079
:209B200001281CD05FF0000152F8364F009452680192144A1468029412798DF80C20CDF89F
:209B40000D30CDF811309DF8082000230A438DF808201522694600F0CDFC06B010BD0221A3
:209B600001EB410404EB011402EB440494F82240E407D9D0491CC9B20329F1D31946D3E710
:209B800024B701203DB001202DE9F04186B012F005FDC0B2410667D5C0F3420512F01AFD32
:209BA0000646202860D8434F3C46B91C12F00AFDA278761E227066704FF0000884F802808C
:209BC000022D6DD305EB450000EB05113A4800EB410494F82200C00762D004F118063146FD
:209BE00002A800F069FDE8B304F11001204602AA15F0CCF915F0A8F9A8B33878012610F010
:209C0000030006D0012809D002280BD0032811D10DE0A81EC0B201F029F90BE02846FFF7D0
:209C2000E1FD07E0284600F023FC064602E02846FFF714FE3978284600F09EFBDEB102986D
:209C4000A0619DF80C0020778DF80080684603F0AFF900220121284600F0A2FA01220221F9
:209C6000284602E00EE009E01EE000F099FA9DF8000003F0EBF92920A08415E007208DF8C2
:209C8000000011E0324604F11001204615F07EF915F05AF940B13978284600F06DFB03E0D0
:209CA000012D01D1FFF7DAFC06B01520BDE8F041FEF722B971BE012024B70120F8B51548F1
:209CC0001549401AC508032000EB054013A119F07DFA164C207B012630B106EB0540BDE898
:209CE000F84013A119F072BA607B08B9FFF75CFE00208DF80000684603F05AF912F05BFC65
:209D000012F05AFC18F020FB26739DF8000003F09DF9F8BD20D80400B8D704006169725F32
:209D2000686F73745F7374617274000028B001206169725F686F73745F7374617274206376
:209D4000616C6C6564207768656E20616C72656164792072756E6E696E670000F8B52848EF
:209D60002849401AC408032000EB044026A119F02DFA294D297B0120C9B300248DF8004063
:209D8000684603F015F92C7318F0A6F91520FEF792F8BFF34F8FBFF36F8F4FF0E0214FF457
:209DA0000010C1F880021520FEF7A6F8EC712C716C71FF2012F0F8FB184E022505EB4500E3
:209DC00000EB051006EB400080F8224084842846FFF79AFBA81EC0B201F00CF86D1CEDB222
:209DE000032DEBD39DF8000003F030F9F8BDFFE700EB0440BDE8F84009A119F0E7B90000CA
:209E000020D80400B8D704006169725F686F73745F73746F7000000028B0012024B7012040
:209E20006169725F686F73745F73746F702063616C6C6564207768656E206E6F74207275D5
:209E40006E6E696E6700000010B5164CE07B401CC0B2E073072801D10020E073207B00280E
:209E60001ED018F039F91048E17B405C12F0E4FB12F0A2FB12F09FFB18F066FAE07868B175
:209E80000A480078400709D509480A49401AC008032101EB004008A119F098F90120E07009
:209EA00010BD000028B0012042B00120F0B0012020D80400B8D7040021212120616972209A
:209EC000757064617465206469646E27742072756E0000002DE9FC479D4CE1789E489F4AC6
:209EE000DFF87082801AC0084FF003099C4D09EB0047002669B3607A401CC0B260720328E1
:209F000001D102206072A078401CC0B2A070082810D003281DD2A27802EB420000EB021015
:209F200005EB4000818CA1B1491E0904090C818402D00EE0A670EEE710F8221F41F00201DC
:209F4000017098F80000400703D5384685A119F041F920794FF0010AA0B195F82200800790
:209F600010D598F80000400703D5384682A119F02DF984F808A095F8220020F0020085F81B
:209F8000220001E0207A38B1AE842672002000F063FB00F0FFFC15E0207898B126706078D4
:209FA00068B1FFF7ADFC012809D0208AA88498F80000400703D5384674A119F007F96078EE
:209FC00000F04AFBE07800287DD0E670607A00EB400101EB001105EB410191F822108A07A8
:209FE00024D507468DF80060684602F0E1FF07EB470101EB071005EB4000002180F822602E
:20A000008684384600F044FB3846FFF77DFA9DF8000003F01BF8E07A40F00400E072FFF72D
:20A02000D9F8B81EC0B200F0E5FE5CE001F0110101291BD1042100968DF8001057498DF86A
:20A0400001600123D1F8E41101910822694600F051FA58B1607A00EB400101EB001005EB1C
:20A06000400010F8221F41F010010170607A00EB400101EB001105EB410292F8221001F0C1
:20A080001903112B07D141F00801801E82F82210C0B200F0ADFE677A07EB470000EB0710E3
:20A0A00005EB400090F8220041071CD5C0070ED08DF80090FFF724FC8DF8010001230222EF
:20A0C0006946384600E040E000F014FA58B1607A00EB400101EB001005EB400010F8221FD1
:20A0E00021F004010170607A00F07AF800F052FC207930B1002000F031F910B90020FFF7CC
:20A100000BFD607930B1012000F028F910B90120FFF702FD002000F063F8012000F060F898
:20A12000E07A002811D0E17A5FF0020000EB400202EB001205EB4203401C13F8222FC0B285
:20A140000A431A700328F1D3E672BDE8FC87000028B00120F0B0012020D80400B8D7040070
:20A1600024B7012074696D6564206F7574207069706520256400000050616972696E6720F7
:20A1800074696D6564206F757400000050616972696E6720737461727465640000600200F1
:20A1A00010B504460C48005D084213D00B4800EB840010F812000AF0D5FF084A04EB440182
:20A1C00001EB0411A43A02EB41010A7E017862F30611017010BD00003AB00120C8B701201B
:20A1E0002DE9F04F064600EB460000EB0611434893B000EB410404F11D09607FC00701D0FB
:20A20000012000E0022083463D48815D11EA0B0F71D1304600F010F9099000286BD05EB11E
:20A22000012E09D04FF00108484600F06BF899F8000000F0010702E04FF0000801272F489C
:20A24000A43000EB860000EB470A09980AF092FF0546217E8078702202EA011108438DF80F
:20A2600000001FB140F004008DF8000068788DF80100E8780AF076FF01469DF801200DF125
:20A280000300FCF735F9B8F1000F0AD004F1100120460AAB4A4614F07FFE69460AA814F071
:20A2A00065FE9DF800008DF80200E8780AF05AFF9DF801200DF10201521CFCF719F9E978E1
:20A2C0008AF800109DF80100401C8AF801000020E87017B16FF0080001E06FF0040008493B
:20A2E0008A5D024042EA0B028A55099800F072F81520FDF701FE13B0BDE8F08F24B7012017
:20A300003AB001200178491C11F0FF01017019D14178491C11F0FF01417013D18178491CE6
:20A3200011F0FF0181700DD1C178491C11F0FF01C17007D101794A1C02F07F0201F08001E0
:20A340000A43027170470B46400702D50022012101E001220221184600F032BB10B5044662
:20A3600000F060F818B10348005D800700D0012010BD00003AB001204B070A490A5C07D5ED
:20A3800042F004020A5411070BD501220A2106E042F008020A54510703D500220521FFF7F3
:20A3A000D1B870473AB00120F8B5044600258DF80050684602F0FCFD054E305D00F024F8DC
:20A3C000F01C355505559DF8000002F03FFEF8BD4BB00120F8B5064600258DF80050684657
:20A3E00002F0E6FD5EB130460AF0C4FE0446C07810B10AF0FBFEE57030460AF011FF9DF8A7
:20A40000000002F023FEF8BD70B5044607E020460AF0B0FE05782046FFF7DCFF2C46002CBE
:20A42000F5D170BD0349085C08B1002070470120704700004BB00120F8B5044600278DF852
:20A440000070684602F0B4FD084E355D3DB128460AF090FE0078305508B9F01C07559DF8B4
:20A46000000002F0F3FD2846F8BD00004BB001202DE9F041804600EB40011C4801EB081119
:20A4800000EB410696F8220000061AD40AF07AFE051E17D015490024743101EB08173819E7
:20A4A000407B88B1641CE4B2022CF8D316F8220F40F08000307028460AF098FE4046FFF790
:20A4C0005BF80120BDE8F08128460AF04BFE084E7178017028460AF045FE7278F11C401C93
:20A4E000FCF706F838194573EBE7000024B7012071BE01202DE9F84F06464FF00008994675
:20A5000017468A468DF80080684602F051FD0AF053FE040002D00FB1202F06D99DF8000077
:20A5200002F094FD0020BDE8F88F0AF023FE05460AF028FEE87088B10AF014FE3A46514612
:20A54000FBF7D6FF6F7085F8029085F800800A4DA85D38B10AF00EFE047006E020460AF044
:20A560005FFEDBE70448C01E8455AC559DF8000002F06CFD0120D6E74EB001202DE9F8437A
:20A5800006460027144689468DF80070684602F00FFDDFF86C8018F806500AE002231B2209
:20A5A00049463046FFF7A6FF98B11B3C09F11B09E4B21B2CF2D80323224649463046FFF70D
:20A5C00099FF30B19DF8000002F040FD0120BDE8F88365B128460AF0CDFD0078FFF714FF34
:20A5E00028460AF0C7FD077008F8065002E03046FFF7DAFE9DF8000002F028FD0020E6E7A3
:20A600004EB0012000EB400101EB0011054800EB4100002181610177C0F81D10802180F800
:20A620002110704724B701201A20FDF765BC000010B5044607484179A14209D044710CB1A1
:20A64000FEF7C8FD2146BDE81040012000F020B810BD000028B0012010B528B1FFF750F958
:20A66000012801D0012400E0002408480179A1420AD0047114B10120FFF7DAFF2146BDE8FA
:20A680001040002000F004B810BD000028B0012070B505460C461520FDF70DFC24B10121ED
:20A6A000284611F08AFF02E0284611F07DFFBDE870401520FDF720BC10B50B78C2F302126A
:20A6C00003F00704944201D1002010BD23F0070313430370D1F80110C0F80110A2421ED28A
:20A6E0000833D9B20170914219D14178491C11F0FF01417013D18178491C11F0FF01817062
:20A700000DD1C178491C11F0FF01C17007D101794A1C02F07F0201F080010A43027101200D
:20A7200010BD10B50446FEF769FD641E14F0FF04F9D110BD022802D21A20FDF7BCBB704768
:20A74000264808B54178002947D10121417024480323062240680090694625201AF046FFCC
:20A7600018B120A27C21FBF755FD25201AF0ACFF00231A4669461A201AF038FF18B119A242
:20A780008121FBF747FD1A201AF09EFF1B491A48086025201AF080FD1849091D08601A20DD
:20A7A0001AF0D8FF1649086013481449001D0831086025201AF0CEFF10490C3108601A2027
:20A7C0001AF06AFD0E49091D08600C48082124380160102101601DF035F908BDE4B00120A2
:20A7E000FCA00400706F72745C67645F737570706F72742E6300000040A1014028F5014040
:20A800001CF901407CB527488178002949D10121254C8170254AA0680090694625201AF07D
:20A8200029FE18B122A2CC21FBF7F4FC012125201AF0AAFD25201AF065FD22490860091DD3
:20A84000214808601F4D2020343D2860E068002301901A4601A91A201AF0C8FE18B114A2F3
:20A86000E121FBF7D7FC1A201AF02EFF16481549F830103908601A201AF06CFF11490C39BD
:20A8800008601148FC30091D08601A201AF004FD0C49091F086008202860102028601DF09E
:20A8A000D1F87CBDE4B00120FCA0040045E50300706F72745C67645F737570706F72742E7E
:20A8C0006300000038F5014048A001402DE9F0410125AE064FF0E0270020C7F88061234CE8
:20A8E0006560616822490860091D0860204904200C310860E560E0681D4940F2DC503C3179
:20A9000008600220091D0860C4F80052C003C4F8040313F061FD10B913F054FD28B113F031
:20A920005BFD38B1FFF70CFF04E013F063FD68B1FFF768FF0F49602081F80004C7F8806222
:20A94000C7F8006125602068BDE8F0810A480B49401AC00805EB004009A118F037FC00BF18
:20A9600018F01EFB0028FBD1FEE7000000A0014004A501401AE000E020D80400B8D70400A9
:20A98000554E4B4E4F574E20535452415050494E4700000010B5FEF7B3FF084C0128A072B4
:20A9A00001D0012000E00020FFF742FE6079002803D1BDE81040FFF74FBE10BD28B00120DC
:20A9C00038B504461348005D08420ED0124800EB840000EB420528780AF0C4FB01466A78E3
:20A9E0002046BDE8384011F029BE0B4904EB440000EB0410A43901EB40007021007E01222B
:20AA000001EA00108DF800006946204611F016FE38BD00003AB00120C8B701200248012180
:20AA200001648163704700000010004006480021C0F81C1101214161D0F81C110029FBD0C5
:20AA400002480068C0B27047001000404815004070B50A4C207800280ED009480949401A18
:20AA6000C008032101EB004007A118F0AFFB00252570FFF723F9E57070BD0000E4B0012061
:20AA800020D80400B8D704002A2A2A206170705F656E7465725F6163746976655F73746149
:20AAA0007465000070B5124C0546227811481249401AC008012632B106EB0040BDE87040EF
:20AAC0000EA118F083BB032101EB004016A118F07DFB0DB1012000E00020E0702670FFF73F
:20AAE0000FF8002D03D1BDE87040FFF737B970BDE4B0012020D80400B8D70400212121201F
:20AB00006170705F656E7465725F73757370656E645F7374617465207768696C6520737555
:20AB20007370656E646564002A2A2A206170705F656E7465725F73757370656E645F73742F
:20AB4000617465000EB515460E46074672B618F0F5FB00BF18F024FA0028FBD149484A4ADE
:20AB60000121801AC00801EB0044012F27D06FF48050381826D0B0F5405F71D06FF4405108
:20AB8000C84218D12B88204640A16A6818F029FB45480068C00700D000BEBFF34F8F424866
:20ABA000E4380168414A01F4E06111430160BFF34F8F00BFFDE7204632463DA129E020463C
:20ABC00041A12BE0204648A118F000FB26B1204632464EA118F0FEFA002D3DD0681E0D289D
:20ABE0002BD00BDC08281FD003DCA8B101280DD117E00B281BD00C2808D11BE00E281FD0D3
:20AC00000F2820D0192821D01E2822D020466A1E42A118F0DFFABBE7204643A118F0D6FA2D
:20AC2000B6E7204644A1F9E7204646A1F6E7204647A1F3E7204649A1F0E720464AA1EDE7AE
:20AC400020464BA1EAE720464BA1E7E720464CA1E4E720464EA1E1E720464FA1DEE7FFE775
:20AC6000A86819F089FF0346D5E90001CDE90010029620464FA1AA6818F0CEFA204657A137
:20AC8000CCE7000020D80400B8D70400415353455254494F4E204641494C454420617420E0
:20ACA00025733A2575000000F0ED00E00400FA05554E4B4E4F574E204641554C54206174A7
:20ACC0002030782530385800534F46544445564943453A20415353455254494F4E20464122
:20ACE000494C454400000000534F46544445564943453A20494E56414C4944204D454D4F9B
:20AD0000525920414343455353000000202020207063203D20307825780000002020202021
:20AD200025643D3F3F3F3F0020202020434C4F434B2F504F57455200202020205241444909
:20AD40004F0000002020202054494D4552300000202020205254433000000000202020205A
:20AD600054454D500000000020202020524E47002020202045434200202020204141520098
:20AD800020202020454755352F535749350000002020202041434C002020202052414D20F6
:20ADA0006163636573732076696F6C6174696F6E000000004552524F52202575205B2573D5
:20ADC0005D2061742025733A25750D0A50432061743A20307825303878000000456E6420B8
:20ADE0006F66206572726F72207265706F7274007047000000280DD107480121C17103799C
:20AE000000214A1E0BB90271C170837803B98270014801707047000008B00120F8B5144647
:20AE20000D4600281DD100268DF80060684602F0BFF83F2C00D93F2422460A4C2946601CF7
:20AE4000FBF756FB0848C178802900D3FF21217086702978942900D141709DF8000002F09C
:20AE6000F5F8F8BD70B6012008B0012070B51E4CA07A1E49401C00F00305C878627A9042BE
:20AE800002D2227A521C227260724DF2B970A081A07AE27A801A164A00F0030002EB800015
:20AEA000426C521C4264E07A85421BD0227AA07A00EB4003C3EB40130E48C2544A78A37A94
:20AEC00003EB4306C6EB431303445A70A27AC91C02EB4203C3EB421210441B22801CFBF7CF
:20AEE00007FBA57270BD000008B0012071BE012010BB0120B0B601202DE9F84F2C4C8146D4
:20AF0000924660880E4681424FD800274FF6FF788DF80070684602F04BF822786078A188DD
:20AF2000884201DA401C00E00020C0B2904204D19DF8000002F08AF835E06578607888425A
:20AF400001DA401C00E00020607020786278824201D3101A02E0081A1044401CE18880B267
:20AF6000884200D9E0809DF8000002F06FF8454519D0E068B9F1000F40F835A00DD066B16B
:20AF800061882069324605FB01004946FBF7B0FAE06800EBC500868002E000EBC500878004
:20AFA0000020BDE8F88F0420FBE70920F9E7000018B2012010B50F4C03E0401C00E00020EC
:20AFC0002070A068002814D120786178814210D0227861882069E36802FB010003EBC201B2
:20AFE00053F83220898890472078A1888842E6DAE3E710BD18B2012030B5CB0008339DB2C5
:20B0000093074FF0000401D0072030BD054BDA602A441A615C701C7058809980DC80002036
:20B0200030BD000018B2012008B500208DF80000684601F0BDFF05498868421C01D0401CB2
:20B0400088609DF8000002F001F808BD18B20120074801784078064A8842928801D3401AF6
:20B0600002E0511A0844401C101A80B27047000018B2012008B500208DF80000684601F0DC
:20B0800097FF0548816809B1491E81609DF8000001F0DCFF08BD000018B20120084B9B786B
:20B0A00023B12AB120B10068037C1BB1082070470720704700230374417442611846704799
:20B0C0005CCD012070B51BF073FD104800240B21047044700E4D817017206C602C706C70EF
:20B0E000FCF7DEFE06211720FCF752FF1720FCF719FF0848046006211120FCF749FF054809
:20B10000001F0068A860002070BD00005CCD01202CB20120081501402DE9FC47DFF8789074
:20B1200099F8023073B368B3052902D20720BDE8FC87436933B3437C012B25D000270446D7
:20B140000025884616468DF80050684601F030FF01A81EF0F5FBC8B1012101700F4944604E
:20B160000968C0E90218C0E904769DF8040089F801009DF8000001F069FF1720FCF7DDFE6A
:20B180002846D4E70820D2E70F46D8E704259DF8000001F05BFFF3E75CCD0120041501400A
:20B1A00001B501226946024800F0C8F908BD0000B8A504002DE9F047324CE07AA17A8842DC
:20B1C00002D1E079002818D010F0FCFF2E4A0028106012D0E1792D4E89B126210170E17925
:20B1E000417002213170106811F002F8E079012801D1A07AE0720020E071BDE8F087904644
:20B2000007460025DFF8889015E0E07A1D2200EB4001C1EB401105EB4500C0EB4510384465
:20B220004944401CFBF764F9E07A401C00F00300E0726D1CEDB2E07AA17A884201D0022D74
:20B24000E3D3144CE06A401CE062012D0DD0022DD3D1242038703B213170D8F8000010F059
:20B26000C7FF606B401C6063C7E7232038701E213170D8F8000010F0BBFF206B401C2063B1
:20B28000BBE7000008B00120CCB00120D0B00120B0B6012010BB01207047000003484FF041
:20B2A000FF31817001710021C170704708B001200D4890F9051019B101290FD0491E41713A
:20B2C00081894DF2B972ED3989B28181914204D9037A11445B1C037281817047002141719D
:20B2E000FF220271C170EBE708B001200348817909B1FFF75FBF817AC172704708B001200D
:20B3000070B505460648C46807E0294620460BF071F9204600F08AFB0446002CF5D170BDDE
:20B3200040B2012070B50A48C5680EE02E7A002405E02146284601F085FB641CE4B2B44265
:20B34000F7D3284600F072FB0546002DEED170BD40B201202DE9F0410E4840F26A77C56804
:20B3600014E02E7A00240BE000222146284601F0C9FB18B108A1384601F0C0FE641CE4B2C1
:20B38000B442F1D3284600F051FB0546002DE8D1BDE8F08140B2012053444B31352E325CEB
:20B3A000636F6D706F6E656E74735C6C69627261726965735C757362645C6170705F757340
:20B3C00062642E630000000070B5064609480625C4680AE0314620460BF00CF905460628BD
:20B3E00005D1204600F022FB0446002CF2D1284670BD000040B20120FEB515460E460FF0BC
:20B40000DFFE044600F00F00082804D206A14FF4557001F073FE00200096CDE90150694683
:20B42000204600F053FFFEBD53444B31352E325C636F6D706F6E656E74735C6C69627261F9
:20B44000726965735C757362645C636C6173735C617564696F5C6170705F757362645F61E5
:20B460007564696F2E63000010B50C4602F04AFB01F04CFEC464002010BD10B50AF002F932
:20B48000C06E10BD2DE9FC4115460E00074604D1274940F2044001F031FE38460AF0F2F86B
:20B4A00004462448407810B9207DC00706D0A06930B1206AB8B31120BDE8FC810820FBE7DF
:20B4C000E06EA8420DD32A463046A16EFBF710F8E06E401BE066A06E65672844A06600200A
:20B4E000EAE7C4E9066538460FF0B1F8054612480069CDE90004E26E6AB1A16EA069FAF701
:20B50000F7FFE169E06E091AE161A1690144A16120670020E0666946284600F08FFE002838
:20B52000CAD19220C8E7FFE7C4E90865F9E70000D8B70400BCB101204CA70400FEB5154609
:20B540000E4604460AF09EF80C49007D497800F0010001430CD020460FF070F8A90609D0C4
:20B5600000210096CDE90151694600F0AFFEFEBD0820FEBD0249896AF3E70000BCB101207C
:20B580004CA70400F8B5040004D138A140F26A5001F0B4FD606820B934A140F26B5001F073
:20B5A000ADFD6068006820B930A140F26C5001F0A5FD2068006820B12CA140F26D5001F018
:20B5C0009DFD16F021FB10B916F028FB20B927A140F2715001F092FD00250FE0002705E089
:20B5E000007800F03FFE08B11120F8BD3946781CC7B2304600F046F90028F1D12946681CF9
:20B60000C5B2204600F0E2F90600E7D100250DE0002703E00078214600F02AFE3946781C9E
:20B62000C7B2304600F02EF90028F3D12946681CC5B2204600F0CAF90600E9D1174D40F23F
:20B64000975607E0A04203D108A1304601F056FD2868056828680028F4D111482C606946EF
:20B660008069009020460AF0C5FFF8BD53444B31352E325C636F6D706F6E656E74735C6C66
:20B6800069627261726965735C757362645C6170705F757362642E63000000004CB20120F5
:20B6A00098A804002DE9F04F87B04FF000081D46934689460446DDF840A04646CDF80C808C
:20B6C00000E0761C6068012300224768214603A8B8470028F5D140468DF800800027B8468C
:20B6E00001903BE0606801236A46D0F804C0214601A8E0476068012305AAD0F804C02146B1
:20B7000001A8E0479DF8141049451AD1D84514D19DF80000CAF8000005F8010B6A1C85F8C2
:20B72000009060689DF800302146456801A89B1EA847002007B0BDE8F08F08F1010000F0A2
:20B74000FF0860689DF800300022D0F804C0214601A89B1EE0479DF800000744B742C1D34A
:20B760000520E7E70148C0687047000040B2012070B50D46040004D106A140F2431001F02D
:20B78000BDFC6078A84201D8002070BDA0782044284470BD53444B31352E325C636F6D7040
:20B7A0006F6E656E74735C6C69627261726965735C757362645C6170705F757362645F6363
:20B7C0006C6173735F626173652E680070B50D46040004D106A140F2431001F08FFC607855
:20B7E000A84201D8002070BDA0782044284470BD53444B31352E325C636F6D706F6E656EC1
:20B8000074735C6C69627261726965735C757362645C6170705F757362645F636C617373FF
:20B820005F626173652E680070B50D46040004D106A140F2431001F061FC6078A84201D812
:20B84000002070BDA0782044284470BD53444B31352E325C636F6D706F6E656E74735C6C74
:20B8600069627261726965735C757362645C6170705F757362645F636C6173735F626173B9
:20B88000652E680070B50D46040004D1064940F2431001F033FC6078A84201D8002070BD80
:20B8A000A0782044284470BDF4B9020070B50D46040004D107A14FF4887001F01FFC207AEA
:20B8C000A84201D8002070BD05EB45000934204470BD000053444B31352E325C636F6D70A2
:20B8E0006F6E656E74735C6C69627261726965735C757362645C6170705F757362645F6322
:20B900006C6173735F626173652E680070B50D46040004D107A14FF4887001F0EFFB207A3B
:20B92000A84201D8002070BD05EB45000934204470BD000053444B31352E325C636F6D7041
:20B940006F6E656E74735C6C69627261726965735C757362645C6170705F757362645F63C1
:20B960006C6173735F626173652E680070B50D46040004D107A14FF4887001F0BFFB207A0B
:20B98000A84201D8002070BD05EB45000934204470BD000053444B31352E325C636F6D70E1
:20B9A0006F6E656E74735C6C69627261726965735C757362645C6170705F757362645F6361
:20B9C0006C6173735F626173652E680070B50D46040004D107A14FF4887001F08FFB207ADB
:20B9E000A84201D8002070BD05EB45000934204470BD000053444B31352E325C636F6D7081
:20BA00006F6E656E74735C6C69627261726965735C757362645C6170705F757362645F6300
:20BA20006C6173735F626173652E680010B5040004D1044940F2432001F060FB2068006807
:20BA400010BD00008CC3020010B5040004D104A140F2432001F052FB2068006810BD0000F5
:20BA600053444B31352E325C636F6D706F6E656E74735C6C69627261726965735C757362BD
:20BA8000645C6170705F757362642E680000000002484078002800D00120704740B201201D
:20BAA00010B520B908A140F2796001F027FB124C607820B904A140F27B6001F01FFB60787D
:20BAC000401E6070002010BD53444B31352E325C636F6D706F6E656E74735C6C696272619B
:20BAE000726965735C757362645C6170705F757362642E630000000040B2012070B50D46C3
:20BB0000040004D124A140F2356001F0F7FA606820B921A140F2366001F0F0FA25B91EA13B
:20BB200040F2376001F0EAFA16F06EF810B916F075F820B918A140F2396001F0DFFA206810
:20BB4000406820B114A140F23C6001F0D7FA206840F2446685601C4D08E0A04203D10EA128
:20BB6000304601F0CBFA286805682D1D28680028F3D1154D40F24D662D1D08E0A04203D1A7
:20BB800005A1304601F0BAFA286805682D1D28680028F3D12C6070BD53444B31352E325C64
:20BBA000636F6D706F6E656E74735C6C69627261726965735C757362645C6170705F757338
:20BBC00062642E630000000050B2012010B5040004D111A14FF4CB6001F090FA16F014F8A0
:20BBE00010B916F01BF820B90BA140F25A6001F085FA15480BE0A14207D1216849680160E4
:20BC0000206800214160084610BD0868001D01680029F0D1052010BD53444B31352E325CE9
:20BC2000636F6D706F6E656E74735C6C69627261726965735C757362645C6170705F7573B7
:20BC400062642E630000000054B2012070B5040004D125A140F2FF5001F050FA606820B945
:20BC600021A14FF4C06001F049FA6068006820B91DA140F2016001F041FA15F0C5FF10B953
:20BC800015F0CCFF20B918A140F2036001F036FA214D40F2096608E0A04203D112A13046B6
:20BCA00001F02CFA286805682D1D28680028F3D12068406820B10CA140F20E6001F01EFA53
:20BCC000154D40F214662D1F08E0A04203D106A1304601F013FA286805682D1D2868002852
:20BCE000F3D12C6070BD000053444B31352E325C636F6D706F6E656E74735C6C6962726117
:20BD0000726965735C757362645C6170705F757362642E630000000054B2012010B504003B
:20BD200004D111A140F21F6001F0E8F915F06CFF10B915F073FF20B90BA140F2216001F020
:20BD4000DDF915480BE0A14207D1216849680160206800214160084610BD0868001D016814
:20BD60000029F0D1052010BD53444B31352E325C636F6D706F6E656E74735C6C6962726137
:20BD8000726965735C757362645C6170705F757362642E630000000050B2012010B50021A2
:20BDA0000A464FF400634418227200EB8104491CC9B263610429F6D380F8292080F8282012
:20BDC00010BD10B5002000F025FABDE81040802000F020BA10B5002000F01EFABDE8104061
:20BDE000802000F019BA00002DE9F041494E0D4602460978062430780B2934D009DC4FF0B8
:20BE0000010707296DD2DFE801F06C0D0F116C2951000C292FD00D2936D00E293DD0852912
:20BE20005FD115E0032016E000245AE03948001D13F00FFF28B138480760BFF36F8FBFF395
:20BE40004F8F30780028EFD134A140F23C400FE0032846D104201DF0C3F842E0104600F06C
:20BE6000A7F804463DE00028DED02CA14FF48A6001F044F9D8E7012804D028A140F2564071
:20BE800001F03CF9002005E03148006810F0010F0AD002201DF0A4F8C6E7022804D21FA174
:20BEA00040F26A4001F02AF90120F3E7E878032817D0A87830B1802804D018A14FF48F60BD
:20BEC00001F01CF91349E87808310A6832B100230B6049689047040006D000E00E2415F00B
:20BEE00009FF2046BDE8F0811DF06CF828B1A8780028F6D115F0C1FEF3E74FF08050D0F8F0
:20BF00003011082903D1D0F834010028E9D015F0B1FEE6E760B201205C70024053444B3128
:20BF2000352E325C636F6D706F6E656E74735C6C69627261726965735C757362645C61707A
:20BF4000705F757362645F636F72652E630000003804004002494978C14001F00100704799
:20BF600060B20120024A0146D2E900021047000044CF0120014948817047000070B20120A6
:20BF8000014908817047000070B2012070B50C46054615F069FEA84201D0102070BD034843
:20BFA000D4E90012C0E90212002070BD60B201207FB5054605208DF8000006240DF1010023
:20BFC00015F070FE1CF0FEFF48B12F482F49401AC008022101EB00402DA117F0F7F834494B
:20BFE000002008609DF8010010F01F0006D001280FD0022826D0032833D106E069462846D4
:20C000001BF020FE044606282AD16846FFF7DCF925E09DF8050003A900F050FD050008D0A6
:20C020006A469DF80C1000F009FD0446062802D016E0102415E06A469DF80C1028461CF065
:20C0400053F80CE09DF80500010705D0694600F09BF80446062803D168461BF0C3FE0446F0
:20C0600024B115F047FE04B0204670BD1CF0AAFF30B115F0F9FD0028F5D115F0FEFDF2E702
:20C0800015F0F8FDEFE70000C8D70400B8D7040050726576696F7573207365747570206E5E
:20C0A0006F742066696E6973686564210000000068B201207FB5C08814460E46A04201D2F8
:20C0C000054600E01546844207D2802015F014FAB4FBF0F100FB114080B100200096CDE90F
:20C0E000015000208DF80C0003A800F061FF6946802000F0EBF8040002D006E00120EDE770
:20C1000005498020FFF742FF04469DF80C0000F09DFF04B0204670BDE0A8040008B1402196
:20C12000016001487047000098CF0120014800787047000060B2012010B515F077FD20B15C
:20C1400004A140F2D13000F0D9FFBDE8104014F0C9BF000053444B31352E325C636F6D700B
:20C160006F6E656E74735C6C69627261726965735C757362645C6170705F757362642E63CA
:20C180000000000015F008B810B50C46010600F00F02092A08D200F009F8006820B121461D
:20C1A000BDE810400AF026BA102010BD10B5010600F00F0408D5092C04D309A14FF4CC70D2
:20C1C00000F09CFF124808E0092C04D304A14FF4CF7000F093FF0E48483000EBC40010BD93
:20C1E00053444B31352E325C636F6D706F6E656E74735C6C69627261726965735C75736236
:20C20000645C6170705F757362642E6300000000FCCE012015F066B810B5044600F00F0063
:20C22000082805D2204615F08DF8204615F0E2F92046BDE8104015F0A9B8000070B50C4689
:20C24000054615F0F5F818B105480078022801D0082070BD21462846BDE8704015F0F0B8EC
:20C2600040B2012010B5FFF7A1FF006810BD000070B50D460646FFF799FF0446056015B154
:20C280006868006808E00EB1802E04D103A14FF4E17000F033FF0020606070BD53444B31C2
:20C2A000352E325C636F6D706F6E656E74735C6C69627261726965735C757362645C6170F7
:20C2C000705F757362642E630000000070B50C46054615F0ADF818B105480078022801D05B
:20C2E000082070BD21462846BDE8704015F012BA40B20120F8B50446007805280BD12048FB
:20C3000000681F49C0B2091F096811F0FF0F16D1052814D11B4C207888B91B4840F27B26C4
:20C3200045690AE0214628460AF09CF91DB917A1304600F0E3FE28684568002DF2D1114DA1
:20C340006946243D286A13F055FC68B1216801606946286A13F06FFC014618480268002AFA
:20C3600001D020469047F8BD15481649401AC008012101EB004014A116F028FFF8BD000037
:20C3800084740240BCA8040040B2012053444B31352E325C636F6D706F6E656E74735C6CD6
:20C3A00069627261726965735C757362645C6170705F757362642E68000000008CCF012066
:20C3C000C0D70400B8D704004576656E742071756575652066756C6C2E00000070B5924CE4
:20C3E0000546E06820B991A140F2254000F086FE0EF039F8062804D28CA140F22C4000F0A6
:20C400007DFE2878092877D008DC092818D2DFE800F07493CF9CAFD8DD17FD0082282DD042
:20C4200008DC0A28EFD00F28EDD0802841D0812806D10CE0832847D084284ED085287AD08B
:20C44000BDE8704079A140F2265000F057BE8348FFF788FD8148FEF753FF0D201DF068FACE
:20C46000FEF760FFFFF7ADFC206910B97C48007A00B1012015F042FC012095E0FEF752FF48
:20C4800015F08CFC00201CF095F97448401CFEF737FF7248401CFFF765FD0E201DF048FA27
:20C4A000207800F03BFD002844D0BDE8704014F0F3B92078052803D0062803D0072839D1A9
:20C4C000022071E008206FE02078032832D115F0A9FC00282ED0042066E02078032805D1D9
:20C4E00015F0A0FC10B104201CF064F915F068FD00281FD0062057E08EE02078032801D06D
:20C50000082803D15548801CFFF768FF00201DF00FFA246940F25F260AE0294620460AF04E
:20C5200069F81CB94F49304600F0E8FD20684468002CF2D170BD44E0FEF7F4FEFFF74AFC4B
:20C5400002201CF037F9012006E02078082809D005201CF02FF903201DF0EAF92846FFF705
:20C5600001FD5BE002201CF025F915F0D9FAF2E703201DF0DDF93948C01CFFF7F3FC3748BE
:20C58000C01CFEF7BDFE2278062A0CD0082A97D035483649401AC008022101EB004034A18E
:20C5A00016F018FE8CE70720BDE870401CF002B903201CF0FFF802201DF0BAF92846FEF73E
:20C5C0009FFE2846BDE87040FFF7CCBCA878FFF7EDFD0446006820B914A140F2025000F0C9
:20C5E0008DFD606820B911A140F2035000F086FDD4E900022946904700289BD0A8780107A6
:20C6000098D000F00F01082994D200E003E0BDE8704014F0BDBF08201DF08AF92846BDE8B8
:20C620007040FEF76DBE000040B2012053444B31352E325C636F6D706F6E656E74735C6C05
:20C6400069627261726965735C757362645C6170705F757362642E6300000000A9A80400EF
:20C660008CCF01208CC30200C0D70400B8D70400556E657870656374656420737461746569
:20C68000206F6E205755524551206576656E74202825752900000000FFF72CBE70B50B4C40
:20C6A0000B4DA06830B9211D286A13F0B9FAA060002809D0FFF792FE0449286A091D13F01C
:20C6C000A4FA0020A060012070BD000040B2012098A8040010B520B104A140F27B2000F0FF
:20C6E0000DFDBDE810400D48FFF704BE53444B31352E325C636F6D706F6E656E74735C6C1C
:20C7000069627261726965735C757362645C6170705F757362642E630000000098A804003F
:20C7200010B50021FFF7F2F80021FFF74FF8007810BD00002DE9F0418046187800240D467C
:20C740001F46164610284AD2DFE800F0082B5F6149353A498686866977898C8679881046B5
:20C7600011F08AFB0146A0F57F40FF3874D000200346321892F8244034B106EB800C7C8816
:20C78000CCF8144082F8243096F829201AB1401CC0B20428EDD36869C9B2826940469047C3
:20C7A00031E00321104600F03AF9012030733046FFF7F4FA50E0294640461BF019FC22E066
:20C7C000B878000604D5294640460EF059FC1AE068694446C06810B1D87810B106E00624A3
:20C7E0003AE00222294640461DF09CF828694068402804D91DA140F2392000F07FFC686962
:20C80000C16820468847044626E0022128E00221104600F004F9686981684046F2E740463A
:20C82000FFF714FA040017D13046FFF7B7FA00214FEA060000F0FDF80EE04046FFF76EFAD4
:20C84000040009D14046FFF72BF9040004D100214FEA060000F0E3F82046BDE8F0810121B8
:20C860001046E7E701211046F4E7000053444B31352E325C636F6D706F6E656E74735C6C2F
:20C8800069627261726965735C757362645C636C6173735C6869645C6170705F7573626490
:20C8A0005F6869642E6300002DE9FF4115460F46044610F0F3FB06462046FFF731FF0446F3
:20C8C0000321304600F0A6F800200097CDE901508DF80C0003A800F06BFB69462046FFF7D5
:20C8E000F5FC040003D10321304600F09DF89DF80C0000F0ABFB04B02046BDE8F081C269BE
:20C9000052680A60C069006870472DE9FC4117460D46064610F0C2FB0446306BCDE90057AD
